S01900005350495F554152545F436861745F4150502E7372656365
S11300000C942A000C943F000C943F000C943F0085
S11300100C943F000C943F000C943F000C943F0060
S11300200C943F000C943F000C943F000C943F0050
S11300300C943F000C943F000C943F000C943F0040
S11300400C943F000C943F000C943F000C943F0030
S11300500C943F0011241FBECFE5D8E0DEBFCDBF16
S113006010E0A0E6B0E0E8EAF4E002C005900D92EA
S1130070A037B107D9F70E9441000C9452020C94A6
S11300800000CF93DF93CDB7DEB7CF5FD1090FB6B2
S1130090F894DEBF0FBECDBFFE0131968FEFDF01B6
S11300A01D928A95E9F70E9406020E94BC016FEF37
S11300B0CE0101960E94DB01CE0101960E94350219
S11300C0F6CF40E0D2C0842F90E0FC01EE0FFF1F7A
S11300D0E80FF91FE05AFF4F2081322F36953695ED
S11300E036952770343008F0C5C03130B1F138F09E
S11300F0323009F460C0333009F48AC0B5C06AB341
S1130100E1E0F0E0DF0102C0AA0FBB1F2A95E2F78D
S11301109D015A2F509565236ABB6BB356235BBB75
S1130120FC01EE0FFF1FE80FF91FE05AFF4F51814A
S1130130552319F05AB35A2B5ABBFC01EE0FFF1F7B
S11301408E0F9F1FFC01E05AFF4F8281882309F420
S11301508BC08BB3282B2BBB87C067B3E1E0F0E0E7
S1130160DF0102C0AA0FBB1F2A95E2F79D015A2F97
S11301705095652367BB68B3562358BBFC01EE0F4B
S1130180FF1FE80FF91FE05AFF4F5181552319F063
S113019057B35A2B57BBFC01EE0FFF1F8E0F9F1F47
S11301A0FC01E05AFF4F8281882309F45DC088B3C3
S11301B0282B28BB59C064B3E1E0F0E0DF0102C0A2
S11301C0AA0FBB1F2A95E2F79D015A2F509565236C
S11301D064BB65B3562355BBFC01EE0FFF1FE80F4C
S11301E0F91FE05AFF4F5181552319F054B35A2B8C
S11301F054BBFC01EE0FFF1F8E0F9F1FFC01E05A42
S1130200FF4F8281882381F185B3282B25BB2CC025
S113021061B3E1E0F0E0DF0102C0AA0FBB1F2A9541
S1130220E2F79D015A2F5095652361BB62B35623B3
S113023052BBFC01EE0FFF1FE80FF91FE05AFF4FFE
S11302405181552319F051B35A2B51BBFC01EE0FC8
S1130250FF1F8E0F9F1FFC01E05AFF4F82818823EE
S113026019F082B3282B22BB4F5F453008F42BCF03
S113027081E0089580E0089590E0FC01EE0FFF1FF7
S1130280E80FF91FE05AFF4F2081322F369536953B
S113029036952770343008F061C0FC01EE0FFF1F63
S11302A08E0F9F1FFC01E05AFF4F8181882309F4C0
S11302B057C03130D1F028F0323051F13330D9F118
S11302C051C03BB381E090E002C0880F991F2A958A
S11302D0E2F7282F209523232BBB662309F444C07F
S11302E09BB3892B8BBB81E0089538B381E090E008
S11302F002C0880F991F2A95E2F7282F20952323FF
S113030028BB662399F198B3892B88BB81E00895B3
S113031035B381E090E002C0880F991F2A95E2F777
S1130320282F2095232325BB662311F195B3892B10
S113033085BB81E0089532B381E090E002C0880F6C
S1130340991F2A95E2F7282F2095232322BB6623A1
S113035089F092B3892B82BB81E0089580E00895EF
S113036080E0089581E0089581E0089581E0089592
S113037081E0089581E008950E9461008DB180615B
S11303808DB98DB180648DB981E00895CF93DF93E9
S1130390EC0160E080E00E943C0188818FB9779B8A
S11303A0FECF8FB1888361E080E00E943C0181E050
S11303B0DF91CF910895EF92FF920F931F93CF9304
S11303C0DF938C01D62FC0E00DC07801EC0EF11C38
S11303D0C7010E94C601F70180818D3059F08A302F
S11303E049F0CF5F2C2F30E08D2F90E00197281734
S11303F039075CF3F801EC0FF11D108281E0DF9105
S1130400CF911F910F91FF90EF900895CF93DF93B9
S11304101F92CDB7DEB7198210BC83E389B98AB1C4
S113042088608AB98AB180618AB989818260898346
S11304308981846089838AB18B7F8AB9898180624A
S1130440898380B5806880BD998180B5892B80BD02
S113045080B58F7780BD81E00F90DF91CF910895B3
S11304605D9BFECF8CB981E008950F931F93CF93CA
S11304708C01C0E004C090E00E943002CF5FF8011C
S1130480EC0FF11D80818111F6CF8DE090E00E9488
S113049030028AE090E00E94300281E0CF911F9107
S10B04A00F910895F894FFCFB9
S11304A80C01010D01000E00000F010008010000FD
S9030000FC
