:100000000C942A000C9447000C9447000C94470071
:100010000C9447000C9447000C9447000C94470044
:100020000C9447000C9447000C9447000C94470034
:100030000C9401020C9476020C9447000C949F02DD
:100040000C9447000C9447000C9447000C94470014
:100050000C94470011241FBECFE5D8E0DEBFCDBF12
:1000600010E0A0E6B0E0E4E9F5E002C005900D92F2
:10007000AC36B107D9F721E0ACE6B0E001C01D9283
:10008000A137B207E1F70E9458000C94C8020C9403
:1000900000000E942A020E94B20108956FEF8CE6D0
:1000A00090E00E94D5018CE690E00E9459020895EC
:1000B0000E9449000E944E00FDCF40E0CCC0842F3A
:1000C00090E0FC01EE0FFF1FE80FF91FE05AFF4F11
:1000D0002081322F3695369536952770343008F0CA
:1000E000BFC03130A1F138F0323009F45CC0333098
:1000F00009F484C0AFC03AB361E070E002C0660F9B
:10010000771F2A95E2F7262F209532233ABB3BB37F
:1001100023232BBBFC01EE0FFF1FE80FF91FE05A52
:10012000FF4F2181222319F02AB3262B2ABBFC0181
:10013000EE0FFF1F8E0F9F1FFC01E05AFF4F8281C1
:10014000882309F487C08BB3682B6BBB83C037B39C
:1001500061E070E002C0660F771F2A95E2F7262F54
:100160002095322337BB38B3232328BBFC01EE0F85
:10017000FF1FE80FF91FE05AFF4F2181222319F0DA
:1001800027B3262B27BBFC01EE0FFF1F8E0F9F1FEF
:10019000FC01E05AFF4F8281882309F45BC088B3D9
:1001A000682B68BB57C034B361E070E002C0660FD3
:1001B000771F2A95E2F7262F2095322334BB35B3DB
:1001C000232325BBFC01EE0FFF1FE80FF91FE05AA8
:1001D000FF4F2181222319F024B3262B24BBFC01DD
:1001E000EE0FFF1F8E0F9F1FFC01E05AFF4F828111
:1001F000882381F185B3682B65BB2CC061B3E1E036
:10020000F0E0DF0102C0AA0FBB1F2A95E2F79D01B3
:100210005A2F5095652361BB62B3562352BBFC0134
:10022000EE0FFF1FE80FF91FE05AFF4F51815523D2
:1002300019F051B35A2B51BBFC01EE0FFF1F8E0F6B
:100240009F1FFC01E05AFF4F8281882319F082B37F
:10025000282B22BB4F5F443008F431CF81E0089552
:1002600080E0089590E0FC01EE0FFF1FE80FF91FFA
:10027000E05AFF4F2081322F3695369536952770FC
:10028000343008F061C0FC01EE0FFF1F8E0F9F1F7E
:10029000FC01E05AFF4F8181882309F457C03130B7
:1002A000D1F028F0323051F13330D9F151C03BB3A5
:1002B00081E090E002C0880F991F2A95E2F7282F6D
:1002C000209523232BBB662309F444C09BB3892BC1
:1002D0008BBB81E0089538B381E090E002C0880FC5
:1002E000991F2A95E2F7282F2095232328BB662300
:1002F00099F198B3892B88BB81E0089535B381E0EB
:1003000090E002C0880F991F2A95E2F7282F2095C8
:10031000232325BB662311F195B3892B85BB81E08F
:10032000089532B381E090E002C0880F991F2A95AA
:10033000E2F7282F2095232322BB662389F092B36E
:10034000892B82BB81E0089580E0089580E00895C4
:1003500081E0089581E0089581E0089581E00895A5
:1003600081E008950E945D008DB180618DB98DB1ED
:1003700080648DB981E00895CF93DF93009789F071
:10038000EC0160E080E00E94320188818FB9779BA8
:10039000FECF8FB1888361E080E00E94320181E06E
:1003A00001C080E0DF91CF910895EF92FF920F930B
:1003B0001F93CF93DF930097D1F0D62F8C01C0E02D
:1003C0000BC07801EC0EF11CC7010E94BC01F701C3
:1003D0008081882371F0CF5F4C2F50E02D2F30E0CB
:1003E000215031094217530764F381E003C080E0D4
:1003F00001C081E0DF91CF911F910F91FF90EF90AD
:1004000008951F920F920FB60F9211242F933F93CE
:100410004F935F936F937F938F939F93AF93BF930C
:10042000EF93FF93E0916B01F0916C01309709F02D
:100430000995FF91EF91BF91AF919F918F917F911E
:100440006F915F914F913F912F910F900FBE0F9041
:100450001F901895CF93DF931F92CDB7DEB7198207
:1004600010BC83E389B98AB188608AB98AB1806196
:100470008AB98981826089838981846089838AB10C
:100480008B7F8AB989818062898380B5806880BDCD
:10049000998180B5892B80BD80B58F7780BD81E043
:1004A0000F90DF91CF9108955D9BFECF8CB981E0D5
:1004B00008950F931F93CF938C01C0E004C090E088
:1004C0000E945402CF5FF801EC0FF11D8081811171
:1004D000F6CF8DE090E00E9454028AE090E00E9406
:1004E000540281E0CF911F910F9108951F920F92B6
:1004F0000FB60F9211242F933F934F935F936F93F7
:100500007F938F939F93AF93BF93EF93FF93E0916C
:100510006F01F0917001309709F00995FF91EF910B
:10052000BF91AF919F918F917F916F915F914F910B
:100530003F912F910F900FBE0F901F9018951F9213
:100540000F920FB60F9211242F933F934F935F9307
:100550006F937F938F939F93AF93BF93EF93FF938B
:10056000E0916D01F0916E01309709F00995FF91CE
:10057000EF91BF91AF919F918F917F916F915F911B
:100580004F913F912F910F900FBE0F901F90189594
:04059000F894FFCF0D
:0C0594000C00000D00000E01000F000024
:00000001FF
