:100000000C942A000C9447000C9447000C94470071
:100010000C94DF090C9468090C9447000C943D097A
:100020000C9447000C94CC080C94A2080C942B0858
:100030000C9447000C9447000C9447000C94470024
:100040000C9447000C9447000C9447000C94470014
:100050000C94470011241FBECFE5D8E0DEBFCDBF12
:1000600010E0A0E6B0E0EAEFFCE102C005900D92DE
:10007000A837B107D9F720E0A8E7B0E001C01D928A
:10008000AA3CB207E1F70E9455000C947B0E0C9439
:10009000000080E00E94FE00089581E00E94FE00C2
:1000A000089582E00E94FE000895CF93DF93CDB7BC
:1000B000DEB729970FB6F894DEBF0FBECDBF84E040
:1000C000898389E490E09B838A8382E08C838DE43A
:1000D00090E09E838D8381E08F8381E590E0998716
:1000E000888780E690E00E949D0083E690E00E9471
:1000F0009D0086E690E00E949D00BE016F5F7F4FED
:1001000080E00E946F0ABE016C5F7F4F81E00E9419
:100110006F0ABE01695F7F4F82E00E946F0A00E1B3
:1001200017E220E030E040E050E060E070E080E086
:100130000E943E0A0E94A40AFFCF0F931F93CF9301
:10014000DF93FC018081803208F04EC02181223093
:1001500008F04CC09281923008F04AC0A82FA695B2
:10016000A695A695B0E0A459BF4FAC91B0E06E91B2
:10017000877041E050E0EA01082E02C0CC0FDD1F7D
:100180000A94E2F730E0890102C0000F111F8A953E
:10019000E2F7C8019C2F90959623892B8C932081A0
:1001A000A22FA695A695A695B0E0A459BF4FAC91F5
:1001B000B0E03C912770022E02C0440F551F0A94F4
:1001C000E2F79281892F90E002C0880F991F2A954B
:1001D000E2F740954323842B8C93E081F0E0E858CC
:1001E000FF4F81E0808305C080E003C080E001C054
:1001F00080E0DF91CF911F910F91089590E0FC0175
:10020000EE0FFF1FE80FF91FE05AFF4F2081E22F8A
:10021000F0E0E858FF4F30813130C1F5FC01EE0FBE
:10022000FF1F8E0F9F1FFC01E05AFF4F818181301D
:1002300079F5E22FE695E695E695F0E0E459FF4F73
:10024000E081F0E0DF0112978C91277041E050E0EF
:10025000022E02C0440F551F0A94E2F790E0842357
:100260009523022E02C0959587950A94E2F7308176
:1002700099278095909502C0880F991F2A95E2F7DB
:1002800040954323842B808381E0089580E0089586
:1002900080E0089580E090E070C4292F30E0F901FB
:1002A000EE0FFF1FEE0FFF1FEE0FFF1FE21BF30B02
:1002B000E059FF4F4081433008F05EC4F901EE0F72
:1002C000FF1FEE0FFF1FEE0FFF1FE21BF30BE059A6
:1002D000FF4F5181543008F04FC4F901EE0FFF1F5A
:1002E000EE0FFF1FEE0FFF1FE21BF30BE059FF4F56
:1002F0006281663048F0603239F0693029F066304A
:1003000019F0673009F038C4F901EE0FFF1FEE0F46
:10031000FF1FEE0FFF1FE21BF30BE059FF4F73812E
:10032000723008F029C4F901EE0FFF1FEE0FFF1F16
:10033000EE0FFF1FE21BF30BE059FF4FE481E430A7
:1003400008F01AC4F901EE0FFF1FEE0FFF1FEE0FAA
:10035000FF1FE21BF30BE059FF4FE581E43008F08B
:100360000BC4F901EE0FFF1FEE0FFF1FEE0FFF1F73
:10037000E21BF30BE059FF4FE681E43008F0FCC3C9
:1003800041111EC1511111C083B78F7B83BF83B749
:10039000877F83BF711104C089B78E7F89BF5FC01B
:1003A000789489B7816089BF5AC0513009F046C03E
:1003B00083B78F7B83BF83B7886083BF87E0829FCB
:1003C000F001839FF00D1124E059FF4F83818111CB
:1003D00004C089B78D7F89BF04C0789489B78260D3
:1003E00089BF87E0829FF001839FF00D1124E059BF
:1003F000FF4F8481811107C083B78F7D83BF83B78F
:100400008F7E83BF2CC0813039F483B78F7D83BF4B
:1004100083B7806183BF23C0823039F483B78062A1
:1004200083BF83B78F7E83BF1AC08330C1F483B785
:10043000806283BF83B7806183BF11C0523039F4BB
:1004400083B7806483BF83B7886083BF08C053309D
:1004500031F483B7806483BF83B7877F83BFF9019B
:10046000EE0FFF1FEE0FFF1FEE0FFF1FE21BF30B40
:10047000E059FF4F828181110BC083B78B7F83BF0F
:1004800083B78D7F83BF83B78E7F83BF81E074C3C3
:100490008130B9F483B78B7F83BF83B78D7F83BFF0
:1004A00083B7816083BF41E050E060E070E040933B
:1004B000BE005093BF006093C0007093C10081E004
:1004C0005BC38230B9F483B78B7F83BF83B782600D
:1004D00083BF83B78E7F83BF48E050E060E070E069
:1004E0004093BE005093BF006093C0007093C10062
:1004F00081E042C38330B9F483B78B7F83BF83B776
:10050000826083BF83B7816083BF40E450E060E0D6
:1005100070E04093BE005093BF006093C0007093A2
:10052000C10081E029C38430B9F483B7846083BFFC
:1005300083B78D7F83BF83B78E7F83BF40E051E059
:1005400060E070E04093BE005093BF006093C00035
:100550007093C10081E010C38530B9F483B7846023
:1005600083BF83B78D7F83BF83B7816083BF40E044
:1005700054E060E070E04093BE005093BF00609391
:10058000C0007093C10081E0F7C2863059F483B790
:10059000846083BF83B7826083BF83B78E7F83BF4E
:1005A00081E0EAC2873009F0DEC283B7846083BF8E
:1005B00083B7826083BF83B7816083BF81E0DCC281
:1005C000413009F0AFC15111B1C061110AC08EB5FF
:1005D0008B7F8EBD8EB58D7F8EBD8EB58E7F8EBD91
:1005E0008FC06130B1F48EB58B7F8EBD8EB58D7F9F
:1005F0008EBD8EB581608EBD41E050E060E070E060
:100600004093BE005093BF006093C0007093C10040
:1006100077C06230B1F48EB58B7F8EBD8EB58260AF
:100620008EBD8EB58E7F8EBD48E050E060E070E0FC
:100630004093BE005093BF006093C0007093C10010
:100640005FC06330B1F48EB58B7F8EBD8EB5826096
:100650008EBD8EB581608EBD40E450E060E070E0FC
:100660004093BE005093BF006093C0007093C100E0
:1006700047C06430B1F48EB584608EBD8EB58D7F79
:100680008EBD8EB58E7F8EBD40E051E060E070E0A3
:100690004093BE005093BF006093C0007093C100B0
:1006A0002FC06530B1F48EB584608EBD8EB58D7F60
:1006B0008EBD8EB581608EBD40E054E060E070E09C
:1006C0004093BE005093BF006093C0007093C10080
:1006D00017C0663051F48EB584608EBD8EB58260D1
:1006E0008EBD8EB58E7F8EBD0BC0673049F48EB542
:1006F00084608EBD8EB582608EBD8EB581608EBDEC
:1007000087E0829FF001839FF00D1124E059FF4F95
:100710008381811105C089B78B7F89BF81E02CC29D
:10072000789489B7846089BF81E026C2513009F08E
:100730001CC2711104C089B78F7E89BF06C0713099
:1007400021F4789489B7806189BF87E0829FF001A6
:10075000839FF00D1124E059FF4F828181110AC05F
:100760008EB58B7F8EBD8EB58D7F8EBD8EB58E7F07
:100770008EBD8FC08130B1F48EB58B7F8EBD8EB5AE
:100780008D7F8EBD8EB581608EBD41E050E060E012
:1007900070E04093BE005093BF006093C000709320
:1007A000C10077C08230B1F48EB58B7F8EBD8EB51F
:1007B00082608EBD8EB58E7F8EBD48E050E060E0D9
:1007C00070E04093BE005093BF006093C0007093F0
:1007D000C1005FC08330B1F48EB58B7F8EBD8EB506
:1007E00082608EBD8EB581608EBD40E450E060E0D9
:1007F00070E04093BE005093BF006093C0007093C0
:10080000C10047C08430B1F48EB584608EBD8EB512
:100810008D7F8EBD8EB58E7F8EBD40E051E060E055
:1008200070E04093BE005093BF006093C00070938F
:10083000C1002FC08530B1F48EB584608EBD8EB5F9
:100840008D7F8EBD8EB581608EBD40E054E060E04E
:1008500070E04093BE005093BF006093C00070935F
:10086000C10017C0863051F48EB584608EBD8EB540
:1008700082608EBD8EB58E7F8EBD0BC0873049F4F1
:100880008EB584608EBD8EB582608EBD8EB5816062
:100890008EBD87E0829FF001839FF00D1124E05907
:1008A000FF4F858181110DC08FB58F778FBD8FB5BB
:1008B0008F7B8FBD8FB58F7D8FBD8FB58F7E8FBDA9
:1008C0002CC0813069F48FB58F778FBD8FB5806470
:1008D0008FBD8FB58F7D8FBD8FB580618FBD1DC0E2
:1008E000823069F48FB580688FBD8FB58F7B8FBDE7
:1008F0008FB580628FBD8FB58F7E8FBD0EC0833068
:1009000061F48FB580688FBD8FB580648FBD8FB562
:1009100080628FBD8FB580618FBD8EB588608EBDC2
:1009200081E02AC1423009F022C161110AC085B5B7
:100930008B7F85BD85B58D7F85BD85B58E7F85BD5A
:10094000A7C06130B1F485B58B7F85BD85B58D7F3E
:1009500085BD85B5816085BD41E050E060E070E017
:100960004093BE005093BF006093C0007093C100DD
:100970008FC06230B1F485B58B7F85BD85B582604F
:1009800085BD85B58E7F85BD48E050E060E070E0B4
:100990004093BE005093BF006093C0007093C100AD
:1009A00077C06830B1F485B58B7F85BD85B5826031
:1009B00085BD85B5816085BD40E250E060E070E0B6
:1009C0004093BE005093BF006093C0007093C1007D
:1009D0005FC06330B1F485B5846085BD85B58D7F1A
:1009E00085BD85B58E7F85BD40E450E060E070E058
:1009F0004093BE005093BF006093C0007093C1004D
:100A000047C06930B1F485B5846085BD85B58D7FFB
:100A100085BD85B5816085BD40E850E060E070E04F
:100A20004093BE005093BF006093C0007093C1001C
:100A30002FC06430B1F485B5846085BD85B5826012
:100A400085BD85B58E7F85BD40E051E060E070E0FA
:100A50004093BE005093BF006093C0007093C100EC
:100A600017C06530A9F485B5846085BD85B5826001
:100A700085BD85B5816085BD40E054E060E070E0F3
:100A80004093BE005093BF006093C0007093C100BC
:100A900087E0829FF001839FF00D1124E059FF4F02
:100AA0008181811116C087E0829FF001839FF00D44
:100AB0001124E059FF4F8381811105C089B78F7BD5
:100AC00089BF81E059C0789489B7806489BF81E08B
:100AD00053C0813009F04DC085B5886085BD87E081
:100AE000829FF001839FF00D1124E059FF4F838115
:100AF000811104C089B78F7789BF04C0789489B702
:100B0000806889BF87E0829FF001839FF00D1124E8
:100B1000E059FF4F8681811108C085B58F7D85BD65
:100B200085B58F7E85BD81E027C0813041F485B5D4
:100B30008F7D85BD85B5806185BD81E01DC082301A
:100B400041F485B5806285BD85B58F7E85BD81E028
:100B500013C0833081F485B5806285BD85B5806121
:100B600085BD81E009C081E007C081E005C081E06A
:100B700003C081E001C081E09F5F992309F48DCB20
:100B800008952F923F924F925F926F927F928F9231
:100B90009F92AF92BF92CF92DF92EF92FF920F930C
:100BA0001F93CF93DF93CDB7DEB769970FB6F89455
:100BB000DEBF0FBECDBF90E0FC01EE0FFF1FEE0FBA
:100BC000FF1FEE0FFF1FE81BF90BE059FF4FA0803E
:100BD000A98AAA2DA33008F018C2FC01EE0FFF1F4E
:100BE000EE0FFF1FEE0FFF1FE81BF90BE059FF4F41
:100BF000B181BA8BB43008F00AC2FC01EE0FFF1FBE
:100C0000EE0FFF1FEE0FFF1FE81BF90BE059FF4F20
:100C1000E281E63048F0E03239F0E93029F0E630A0
:100C200019F0E73009F0F5C1FC01EE0FFF1FEE0FE0
:100C3000FF1FEE0FFF1FE81BF90BE059FF4FE38189
:100C4000E23008F0E8C1FC01EE0FFF1FEE0FFF1FBE
:100C5000EE0FFF1FE81BF90BE059FF4FE481E43072
:100C600008F0DBC1FC01EE0FFF1FEE0FFF1FEE0FC0
:100C7000FF1FE81BF90BE059FF4FE581E43008F056
:100C8000CEC1FC01EE0FFF1FEE0FFF1FEE0FFF1F87
:100C9000E81BF90BE059FF4F8681843008F0C1C191
:100CA00047017E836D835C834B83332E222E1A8310
:100CB0000983302F0093BA001093BB002092BC0030
:100CC0003092BD00A12C0F2EF2E1BF2EF02D0F2E81
:100CD000FAE7CF2EF02DD12CE12CF12C00E010E022
:100CE000232F3A81422D532D6B817C818D819E81F2
:100CF0000E949C0D2B873C874D875E87F62FE72F40
:100D00008F87988B4090BE005090BF006090C000CD
:100D10007090C100A301920160E472E48FE090E062
:100D20000E945F0D6F83788789879A878B019C016A
:100D3000A02EB12EC22ED32E00E010E02B853C85D4
:100D40004D855E856F2F7E2F8F8598890E94F70DC8
:100D50000E943A0C6B017C016093C2007093C30047
:100D60008093C4009093C500E989E11183C0AA88EB
:100D7000A11054C020E030E040E853E40E94C90CC8
:100D800088239CF020E030E040E85BE3C701B60137
:100D90000E94CE0C0E94CE0B6093C6007093C700D9
:100DA0008093C8009093C9002AC1C301B20120E01A
:100DB00032E14AE750E00E946F0D942F832F722F8B
:100DC00066270E94FD0B6B017C0129813A81422D2F
:100DD000532D6B817C818D819E810E943A0C2B0169
:100DE0003C0120E034E244E759E4C701B6010E9427
:100DF000CE0C9B01AC01C301B2010E945C0B9B01B4
:100E0000AC0160E070E08FE793E40E94EF0A0E947B
:100E1000CE0B62BF81E08093A500F1C00A8901304A
:100E200009F0EDC060E072E18AE790E02F8138853B
:100E300049855A850E946F0D59016A01E12CF12CF8
:100E400087012A8BBB8ACC8ADD8AEE8AFF8A088FCB
:100E5000198FE12CF12C00E010E029813A81422D1C
:100E6000532D6B817C818D819E810E94F70D2CBF5B
:100E700012BEC5C009890130D9F51A8911112BC0DC
:100E800020E030E040E857E40E94C90C88239CF041
:100E900020E030E040E857E3C701B6010E94CE0CE5
:100EA0000E94CE0B6093C6007093C7008093C80069
:100EB0009093C900A4C0A701960160E07FEF8FE77F
:100EC00097E40E94EF0A0E94CE0B7DBD6CBD81E0CD
:100ED0008093A40094C08A89813009F090C0C70132
:100EE000B6010E94CE0B7BBD6ABD1DBC1CBC87C079
:100EF0009989923009F083C0AA89A11156C020E0D7
:100F000030E040E853E4C701B6010E94C90C8823D1
:100F10009CF020E030E040E85BE3C701B6010E94AE
:100F2000CE0C0E94CE0B6093C6007093C7008093D6
:100F3000C8009093C90063C0C301B20120E032E150
:100F40004AE750E00E946F0D942F832F722F66277F
:100F50000E94FD0B6B017C0129813A81422D532DAA
:100F60006B817C818D819E810E943A0C2B013C011A
:100F700020E034E244E759E4C701B6010E94CE0CF8
:100F80009B01AC01C301B2010E945C0B9B01AC014F
:100F900060E070E08FE793E40E94EF0A0E94CE0BBE
:100FA00064BD81E08093A3002AC0BA89B13039F5CD
:100FB00060E072E18AE790E02F81388549855A85A3
:100FC0000E946F0D59016A01E12CF12C87012A8BD7
:100FD000BB8ACC8ADD8AEE8AFF8A088F198FE12CC2
:100FE000F12C00E010E029813A81422D532D6B81D4
:100FF0007C818D819E810E94F70D23BD14BC90924F
:10100000A7008092A60081E00DC080E00BC080E0C8
:1010100009C080E007C080E005C080E003C080E038
:1010200001C080E069960FB6F894DEBF0FBECDBF59
:10103000DF91CF911F910F91FF90EF90DF90CF90B4
:10104000BF90AF909F908F907F906F905F904F90E8
:101050003F902F9008951F920F920FB60F92112478
:101060002F933F934F935F936F937F938F939F93B0
:10107000AF93BF93EF93FF93E091A600F091A70089
:10108000309709F44EC08091A500811130C0809145
:101090009F009091A000A091A100B091A20040916A
:1010A000C6005091C7006091C8007091C9008417B4
:1010B0009507A607B70779F410929F001092A00039
:1010C0001092A1001092A20012BEE091A600F09131
:1010D000A700099526C00196A11DB11D80939F0010
:1010E0009093A000A093A100B093A2001AC009950C
:1010F00020E030E040E853E46091C2007091C3000A
:101100008091C4009091C5000E94CE0C9B01AC015F
:1011100060E070E080E893E40E94EF0A0E94CE0B4A
:1011200062BFFF91EF91BF91AF919F918F917F919E
:101130006F915F914F913F912F910F900FBE0F9044
:101140001F9018951F920F920FB60F9211242F9394
:101150003F934F935F936F937F938F939F93AF933F
:10116000BF93EF93FF93E091A600F091A700309713
:1011700011F0099512BEFF91EF91BF91AF919F9130
:101180008F917F916F915F914F913F912F910F9030
:101190000FBE0F901F9018951F920F920FB60F92CF
:1011A00011242F933F934F935F936F937F938F936C
:1011B0009F93AF93BF93EF93FF93E091A600F091BD
:1011C000A700309709F448C08091A400811131C074
:1011D00080919B0090919C00A0919D00B0919E00F9
:1011E0004091C6005091C7006091C8007091C9003D
:1011F00084179507A607B70781F410929B001092F9
:101200009C0010929D0010929E001DBC1CBCE091A1
:10121000A600F091A70009951FC00196A11DB11D60
:1012200080939B0090939C00A0939D00B0939E00A0
:1012300013C009952091C2003091C3004091C400B1
:101240005091C50060E07FEF8FE797E40E94EF0ABE
:101250000E94CE0B7DBD6CBDFF91EF91BF91AF9110
:101260009F918F917F916F915F914F913F912F91BE
:101270000F900FBE0F901F9018951F920F920FB6F0
:101280000F9211242F933F934F935F936F937F930C
:101290008F939F93AF93BF93EF93FF93E091A6003B
:1012A000F091A700309719F009951DBC1CBCFF9167
:1012B000EF91BF91AF919F918F917F916F915F91CE
:1012C0004F913F912F910F900FBE0F901F90189547
:1012D0001F920F920FB60F9211242F933F934F93AB
:1012E0005F936F937F938F939F93AF93BF93EF938E
:1012F000FF93E091A600F091A700309709F44EC04B
:101300008091A300811130C0809197009091980046
:10131000A0919900B0919A004091C6005091C700E9
:101320006091C8007091C90084179507A607B70798
:1013300079F41092970010929800109299001092F0
:101340009A0014BCE091A600F091A700099526C070
:101350000196A11DB11D8093970090939800A093D2
:101360009900B0939A001AC0099520E030E040E857
:1013700053E46091C2007091C3008091C4009091C9
:10138000C5000E94CE0C9B01AC0160E070E080E8DB
:1013900093E40E94EF0A0E94CE0B64BDFF91EF918F
:1013A000BF91AF919F918F917F916F915F914F917D
:1013B0003F912F910F900FBE0F901F9018951F9285
:1013C0000F920FB60F9211242F933F934F935F9379
:1013D0006F937F938F939F93AF93BF93EF93FF93FD
:1013E000E091A600F091A700309711F0099514BC88
:1013F000FF91EF91BF91AF919F918F917F916F91ED
:101400005F914F913F912F910F900FBE0F901F90C2
:101410001895FC012081211106C081819281892BC0
:1014200021F080E0089580E0089581E00895209102
:10143000A9003091AA004091AB005091AC0060919E
:10144000AD007091AE008091AF009091B000A1E02E
:101450000E94540E2093A9003093AA004093AB0041
:101460005093AC006093AD007093AE008093AF00DA
:101470009093B00081E08093A80008959F92AF926E
:10148000BF92CF92DF92EF92FF920F931F93CF9371
:10149000DF93C82F922EA32EB42EC52ED62ED72F73
:1014A0000E944A01813079F40F2EF7E1EF2EFAE025
:1014B000FF2EF02D292D3A2D4B2D5C2D6D2D7D2FDE
:1014C0008C2F0E94C105DF91CF911F910F91FF904A
:1014D000EF90DF90CF90BF90AF909F900895FF92D4
:1014E0000F931F93CF93DF93F82E8B01C82FD0E07B
:1014F000CE01880F991F8C0F9D1F8F549F4F0E9404
:10150000090A8130B1F482E08F15A8F001151105A8
:10151000A1F0CE01880F991FC80FD91FCF54DF4FFC
:10152000F80180819181A28188839983AA8381E0D7
:1015300005C080E003C080E001C080E0DF91CF9172
:101540001F910F91FF9008958091A8008130E1F7DD
:101550003EC0C92DD0E0CE01880F991F8C0F9D1F72
:101560008F549F4F0E94090A813079F1FE01EE0FDE
:10157000FF1FEC0FFD1FEF54FF4FA0802091A9002B
:101580003091AA004091AB005091AC006091AD0049
:101590007091AE00B12CC12CD12CE12CF12C00E0CB
:1015A00010E08091AF009091B0000E94F50DA0E096
:1015B0000E94600E51F4CE01880F991FC80FD91FE9
:1015C000CF54DF4FE981FA810995939401C0912CA2
:1015D00082E0891508F0BDCF1092A800B5CF505811
:1015E000BB27AA270E94070B0C948F0C0E94810C2A
:1015F00038F00E94880C20F039F49F3F19F426F44B
:101600000C947E0C0EF4E095E7FB0C94780CE92F1B
:101610000E94A00C58F3BA17620773078407950756
:1016200020F079F4A6F50C94C20C0EF4E0950B2E84
:10163000BA2FA02D0B01B90190010C01CA01A00124
:101640001124FF27591B99F0593F50F4503E68F17F
:101650001A16F040A22F232F342F4427585FF3CFC0
:10166000469537952795A795F0405395C9F77EF491
:101670001F16BA0B620B730B840BBAF09150A1F0DA
:10168000FF0FBB1F661F771F881FC2F70EC0BA0F60
:10169000621F731F841F48F4879577956795B795E8
:1016A000F7959E3F08F0B0CF9395880F08F09927E3
:1016B000EE0F9795879508950E94700B0C948F0CF0
:1016C0000E94880C58F00E94810C40F029F45F3F82
:1016D00029F00C94780C51110C94C30C0C947E0CD2
:1016E0000E94A00C68F39923B1F3552391F3951B45
:1016F000550BBB27AA2762177307840738F09F5F33
:101700005F4F220F331F441FAA1FA9F335D00E2E9F
:101710003AF0E0E832D091505040E695001CCAF70C
:101720002BD0FE2F29D0660F771F881FBB1F2617CF
:1017300037074807AB07B0E809F0BB0B802DBF01A6
:10174000FF2793585F4F3AF09E3F510578F00C9475
:10175000780C0C94C30C5F3FE4F3983ED4F3869569
:1017600077956795B795F7959F5FC9F7880F911D96
:101770009695879597F90895E1E0660F771F881F82
:10178000BB1F621773078407BA0720F0621B730B35
:10179000840BBA0BEE1F88F7E09508950E94A80C01
:1017A00088F09F5798F0B92F9927B751B0F0E1F022
:1017B000660F771F881F991F1AF0BA95C9F714C0D2
:1017C000B13091F00E94C20CB1E008950C94C20CAB
:1017D000672F782F8827B85F39F0B93FCCF386950B
:1017E00077956795B395D9F73EF490958095709568
:1017F00061957F4F8F4F9F4F0895E89409C097FBE5
:101800003EF490958095709561957F4F8F4F9F4FD7
:101810009923A9F0F92F96E9BB279395F69587951B
:1018200077956795B795F111F8CFFAF4BB0F11F4DE
:1018300060FF1BC06F5F7F4F8F4F9F4F16C0882385
:1018400011F096E911C0772321F09EE8872F762FBB
:1018500005C0662371F096E8862F70E060E02AF0FC
:101860009A95660F771F881FDAF7880F96958795E8
:1018700097F90895E894F92F96EBFF2381F012165B
:1018800013061406440B9395F695879577956795FF
:1018900057954040FF23B9F71BC099270895882327
:1018A00051F49850D2F7872B762F652F542F432F62
:1018B000322F20E0B1F3121613061406440B8823CE
:1018C0003AF09A95440F551F661F771F881FCAF775
:1018D00055234AF4440F551F11F460FF04C06F5F95
:1018E0007F4F8F4F9F4F880F9695879597F9089553
:1018F00097F99F6780E870E060E008959FEF80ECC3
:10190000089500240A941616170618060906089565
:1019100000240A9412161306140605060895092ECB
:101920000394000C11F4882352F0BB0F40F4BF2B3A
:1019300011F460FF04C06F5F7F4F8F4F9F4F08957A
:1019400057FD9058440F551F59F05F3F71F0479570
:10195000880F97FB991F61F09F3F79F08795089555
:10196000121613061406551FF2CF4695F1DF08C074
:10197000161617061806991FF1CF86957105610591
:1019800008940895E894BB2766277727CB0197F939
:1019900008950E943B0D08F48FEF08950E94E10C1A
:1019A0000C948F0C0E94810C38F00E94880C20F05F
:1019B000952311F00C94780C0C947E0C11240C944B
:1019C000C30C0E94A00C70F3959FC1F3950F50E0DB
:1019D000551F629FF001729FBB27F00DB11D639FE1
:1019E000AA27F00DB11DAA1F649F6627B00DA11D87
:1019F000661F829F2227B00DA11D621F739FB00D2D
:101A0000A11D621F839FA00D611D221F749F33279C
:101A1000A00D611D231F849F600D211D822F762F35
:101A20006A2F11249F5750409AF0F1F088234AF012
:101A3000EE0FFF1FBB1F661F771F881F915050407E
:101A4000A9F79E3F510580F00C94780C0C94C30CC0
:101A50005F3FE4F3983ED4F3869577956795B79505
:101A6000F795E7959F5FC1F7FE2B880F911D96951F
:101A7000879597F90895990F0008550FAA0BE0E88C
:101A8000FEEF16161706E807F907C0F01216130640
:101A9000E407F50798F0621B730B840B950B39F480
:101AA0000A2661F0232B242B252B21F408950A26E6
:101AB00009F4A140A6958FEF811D811D0895DB01DA
:101AC0008F939F930E94910DBF91AF91A29F800D24
:101AD000911DA39F900DB29F900D11240895A1E236
:101AE0001A2EAA1BBB1BFD010DC0AA1FBB1FEE1F98
:101AF000FF1FA217B307E407F50720F0A21BB30BE3
:101B0000E40BF50B661F771F881F991F1A9469F75E
:101B100060957095809590959B01AC01BD01CF01BA
:101B200008950E946C0EA59F900DB49F900DA49FE8
:101B3000800D911D11240895DF93CF931F930F9370
:101B40009A9DF02D219FF00D8B9DF00D8A9DE02D2B
:101B5000F10D039FF00D029FE00DF11D4E9DE00D74
:101B6000F11D5E9DF00D4F9DF00D7F936F93BF9221
:101B7000AF925F934F93D5010E946C0E8B01AC0125
:101B8000D7010E946C0EEB01E80FF91FD6010E94ED
:101B9000EC0D2F913F91D6010E946C0EC60FD71FFE
:101BA000E81FF91FAF91BF910E94EC0D2F913F915B
:101BB0000E946C0EC60FD71FE81FF91FD6010E94A6
:101BC0006C0EE60FF71F9801BE01CF0111240F9193
:101BD0001F91CF91DF9108950E946C0E460F571F01
:101BE000C81FD91F08F431960895689401C0E8947D
:101BF0008F929F92CF93DF930E94030EDF91CF913C
:101C00009F908F90089588249924F401E401B0E412
:101C10009F93AA279A158B049C04ED05FE05CF051A
:101C2000D007A10798F4AD2FDC2FCF2FFE2FE92D81
:101C3000982C892E982F872F762F652F542F432F7E
:101C4000322F2227B85031F7BF9127C01B2EBF91EA
:101C5000BB27220F331F441F551F661F771F881F86
:101C6000991F881C991CEE1FFF1FCC1FDD1FAA1F88
:101C7000BB1F8A149B04EC05FD05CE05DF05A007FC
:101C8000B10748F08A189B08EC09FD09CE09DF0965
:101C9000A00BB10B21601A94E1F62EF49401AF0170
:101CA000BE01CD01000C08950024A7FD00942A0F69
:101CB000301D401D501D601D701D801D901D08951C
:101CC0000024A7FD00942A17300540055005600543
:101CD0007005800590050895A29FB001B39FC001D3
:101CE000A39F700D811D1124911DB29F700D811D48
:0A1CF0001124911D0895F894FFCF10
:101CFA000001000101000201000301003B383532F6
:081D0A000100050100000000CA
:00000001FF
