S01200005350495F4472697665722E737265635B
S11300000C942A000C943F000C943F000C943F0085
S11300100C943F000C943F000C943F000C943F0060
S11300200C943F000C943F000C943F000C943F0050
S11300300C943F000C943F000C943F000C943F0040
S11300400C943F000C943F000C943F000C943F0030
S11300500C943F0011241FBECFE5D8E0DEBFCDBF16
S113006010E0A0E6B0E0E4E6F2E002C005900D92F4
S1130070A438B107D9F70E9441000C9430010C94C4
S11300800000CF93DF931F92CDB7DEB70E94220109
S113009087E0898315BACE0101960E9429018981DE
S11300A085BBF9CF40E0C7C0842F90E0FC01EE0F80
S11300B0FF1FE80FF91FE05AFF4F2081322F3695BA
S11300C0369536952770343008F0BAC03130D1F106
S11300D038F0323009F465C0333009F487C0AAC05F
S11300E05AB361E070E0DB0102C0AA0FBB1F2A957E
S11300F0E2F79D016A2F609556235ABB5BB35623E2
S11301005BBBFC01EE0FFF1FE80FF91FE05AFF4F26
S11301105181552321F08AB3282B2ABB8BC0FC01C3
S1130120EE0FFF1F8E0F9F1FFC01E05AFF4F8281CD
S1130130811104C08BB368236BBB7CC08BB3282BA9
S11301402BBB78C067B3E1E0F0E0DF0102C0AA0F87
S1130150BB1F2A95E2F79D015A2F5095652367BB73
S113016068B3562358BBFC01EE0FFF1FE80FF91FBD
S1130170E05AFF4F5181552321F087B3282B27BB29
S113018059C0FC01EE0FFF1F8E0F9F1FFC01E05AA8
S1130190FF4F8281882309F44DC088B3282B28BBE4
S11301A049C0E4B361E070E0DB0102C0AA0FBB1FE9
S11301B02A95E2F79D015A2F50956E2F652364BB53
S11301C065B3562355BBFC01EE0FFF1F8E0F9F1F17
S11301D0FC01E05AFF4F8181882321F084B3282B4E
S11301E024BB28C085B3282B25BB24C0E1B361E020
S11301F070E0DB0102C0AA0FBB1F2A95E2F79D0144
S11302005A2F50956E2F652361BB62B3562352BBA0
S1130210FC01EE0FFF1F8E0F9F1FFC01E05AFF4FE2
S11302208181882321F081B3282B21BB03C082B3B1
S1130230282B22BB4F5F4C3008F436CF81E0089561
S113024080E008950E9452008DB180648DB981E0F0
S11302500895779BFECF2FB1FC01208381E00895A0
S1070260F894FFCF3C
S11302640C00000D00000E01000F0000100100112D
S1130274010012010013010014010015010016010C
S1070284001701005A
S9030000FC
