:100000000C942A000C943F000C943F000C943F0089
:100010000C943F000C943F000C943F000C943F0064
:100020000C943F000C943F000C943F000C943F0054
:100030000C943F000C943F000C943F000C943F0044
:100040000C943F000C943F000C943F000C943F0034
:100050000C943F0011241FBECFE5D8E0DEBFCDBF1A
:1000600010E0A0E6B0E0E6E5F1E002C005900D92F8
:10007000A036B107D9F70E9441000C94A9000C9456
:1000800000000E9454002FEF89E698E12150804043
:100090009040E1F700C0000061E482E00E947E0031
:1000A000FFCF81B1887F089581B18E7F81B981B101
:1000B0008D7F81B980E280B912B886B7806886BF2B
:1000C00086B7846086BF089586B78F7E86BF86B761
:1000D000806286BF86B7846086BF86B7806886BF29
:1000E000089586B78F7D86BF86B7806186BF86B745
:1000F000846086BF86B7806886BF0895CF93DF93FC
:10010000C82FD62F0E94640006B607FEFDCF0E94BE
:1001100051008830D1F4CC0FC3B986B7806886BF50
:1001200006B607FEFDCF0E945100883171F4D3B9A5
:1001300086B7806886BF06B607FEFDCF0E945100D5
:10014000883219F40E94710001C080E0DF91CF91E4
:060150000895F894FFCFB2
:00000001FF
