S01200004932435F4472697665722E7372656389
S11300000C942A000C9447000C9447000C9447006D
S11300100C9447000C9447000C9447000C94470040
S11300200C9447000C9447000C9447000C94470030
S11300300C9447000C9447000C9447000C94470020
S11300400C9447000C9447000C9447000C94D40182
S11300500C94470011241FBECFE5D8E0DEBFCDBF0E
S113006010E0A0E6B0E0EEEFF3E002C005900D92E0
S1130070A837B107D9F720E0A8E7B0E001C01D9286
S1130080AA37B207E1F70E9449000C94FD010C94D1
S113009000000E945F000E943D0160E02FEF89E6AE
S11300A098E1215080409040E1F700C000006BBB14
S11300B0C1E0C60F82E00E94B9016C2FEFCF40E08F
S11300C0D2C0842F90E0FC01EE0FFF1FE80FF91F50
S11300D0E05AFF4F2081322F36953695369527709A
S11300E0343008F0C5C03130B1F138F0323009F4A1
S11300F060C0333009F48AC0B5C06AB3E1E0F0E00F
S1130100DF0102C0AA0FBB1F2A95E2F79D015A2FF7
S1130110509565236ABB6BB356235BBBFC01EE0FA2
S1130120FF1FE80FF91FE05AFF4F5181552319F0C3
S11301305AB35A2B5ABBFC01EE0FFF1F8E0F9F1FA1
S1130140FC01E05AFF4F8281882309F48BC08BB3F2
S1130150282B2BBB87C067B3E1E0F0E0DF0102C0CE
S1130160AA0FBB1F2A95E2F79D015A2F50956523CC
S113017067BB68B3562358BBFC01EE0FFF1FE80FA3
S1130180F91FE05AFF4F5181552319F057B35A2BE9
S113019057BBFC01EE0FFF1F8E0F9F1FFC01E05A9F
S11301A0FF4F8281882309F45DC088B3282B28BBC4
S11301B059C064B3E1E0F0E0DF0102C0AA0FBB1F45
S11301C02A95E2F79D015A2F5095652364BB65B3C8
S11301D0562355BBFC01EE0FFF1FE80FF91FE05A31
S11301E0FF4F5181552319F054B35A2B54BBFC01D2
S11301F0EE0FFF1F8E0F9F1FFC01E05AFF4F8281FD
S1130200882381F185B3282B25BB2CC061B3E1E0A1
S1130210F0E0DF0102C0AA0FBB1F2A95E2F79D019F
S11302205A2F5095652361BB62B3562352BBFC0120
S1130230EE0FFF1FE80FF91FE05AFF4F51815523BE
S113024019F051B35A2B51BBFC01EE0FFF1F8E0F57
S11302509F1FFC01E05AFF4F8281882319F082B36B
S1130260282B22BB4F5F483008F42BCF81E0089540
S113027080E0089581B1887F089581B18C7F81B930
S113028081B181B988E080B983E082B986B780649E
S113029086BF86B7806886BF86B7846086BF81E0E4
S11302A0089586B78F7E86BF86B7806286BF86B77D
S11302B0846086BF86B7806886BF06B607FEFDCF1A
S11302C00E943A01883011F481E0089580E0089595
S11302D086B78F7D86BF86B7806186BF86B7846008
S11302E086BF86B7806886BF81E008956230F8F4DF
S11302F090E0880F991F862B83B986B7806886BFE4
S113030006B607FEFDCF613041F40E943A01803405
S113031081F00E94680180E0089561110CC00E9480
S11303203A01883151F00E94680180E0089580E02C
S1130330089581E0089581E0089581E0089506B666
S113034007FEFDCF83B986B7806886BF06B607FE71
S1130350FDCF0E943A01883231F0883B31F0883C6D
S113036031F481E0089581E0089581E0089580E00A
S11303700895CF93DF93D82FC62F0E94510160E0D8
S11303808D2F0E9476018C2F0E949F010E943A01BA
S1130390883221F00E94680180E003C00E94680155
S11303A081E0DF91CF9108951F920F920FB60F92C3
S11303B011242F933F934F935F936F937F938F9366
S11303C09F93AF93BF93EF93FF93E0917800F091E5
S11303D07900309709F00995FF91EF91BF91AF91A2
S11303E09F918F917F916F915F914F913F912F9149
S11103F00F900FBE0F901F901895F894FFCF3A
S11303FE00010001010002010003010004010005D7
S10B040E0100060100070100D2
S9030000FC
