S0120000546865726D6F737461742E73726563E7
S11300000C942A000C9447000C9447000C9447006D
S11300100C9447000C9447000C9447000C94470040
S11300200C9447000C9447000C9447000C94470030
S11300300C9447000C9447000C9447000C94470020
S11300400C9447000C9447000C9447000C94470010
S11300500C94470011241FBECFE5D8E0DEBFCDBF0E
S113006010E0A0E6B0E0E0E9FDE002C005900D92EA
S1130070A43CB107D9F720E0A4ECB0E001C01D9284
S1130080AA3CB207E1F70E940E040C94C6060C9435
S113009000000E9437040E94E4030E941C0240E016
S11300A060E081E690E00E949E0340E061E082E728
S11300B090E00E949E030895EF920F938091C800F0
S11300C0813079F120F0823009F453C08BC087EC81
S11300D090E00E94E80386EC90E00E94F5008823FB
S11300E0E1F02091C60080ED820F8A3060F48091A7
S11300F0C500880F982F990F990F890F820F80538D
S11301008093C5000AC02D3341F48091C5008093CB
S113011060001092C5001092C60081E08093C80070
S113012061C02091C70030E08091600090E0AC0194
S11301304E5F5F4F421753075CF44091C400411176
S113014007C081E08093C40080E00E94D8030DC002
S11301500297821793074CF08091C400813029F4F0
S11301601092C40080E00E94DE0382E08093C80005
S113017039C02091C7006894EE24E2F800E030E032
S113018040E050E060E070E080E090E00E94AC036A
S113019080E20E946002209160000F2EFBE0EF2EAF
S11301A0F02D30E040E050E060E070E080E090E06E
S11301B00E94AC0380E20E9460028091C600882302
S11301C061F02091C50001E030E040E050E060E0E3
S11301D070E080E090E00E94AC0380E20E94600244
S11301E01092C8000F91EF900895CF92DF92EF9292
S11301F0FF920F931F93CF93DF931F92CDB7DEB778
S11302007C01198261E087E00E94120561E088E0C8
S11302100E94120561E089E00E94120561E08AE013
S11302200E941205C12C00E02CC00F2EF7E0DF2E37
S1130230F02DD00E60E08D2D0E94120510E01AC042
S1130240BE016F5F7F4F8BE0810F0E949205898111
S113025081110FC0E12FF0E0EE0FFF1FEE0FFF1F23
S1130260ED57FF4FE00FF11DC0808091C900813030
S1130270B1F01F5F143020F361E08D2D0E94120550
S11302800F5F043090F2C11004C01092C90080E0E6
S113029007C081E08093C900F701C08201C080E0FB
S11302A00F90DF91CF911F910F91FF90EF90DF900E
S11302B0CF900895CF93C82F60E082E00E9412058A
S11302C0C4FB662760F983E00E941205C5FB66271C
S11302D060F984E00E941205C6FB662760F985E098
S11302E00E9412056C2F661F6627661F86E00E9417
S11302F0120561E081E00E9412058FEC97E00197FE
S1130300F1F700C0000060E081E00E9412058FEC6C
S113031097E00197F1F700C000006C2F617083E053
S11303200E941205C1FB662760F984E00E94120551
S1130330C2FB662760F985E00E941205C3FB6627AD
S113034060F986E00E94120561E081E00E941205D6
S11303508FEC97E00197F1F700C0000060E081E0C6
S11303600E9412058FEC97E00197F1F700C000009E
S113037081E0CF910895CF93C82F61E082E00E947D
S11303801205C4FB662760F983E00E941205C5FBD1
S1130390662760F984E00E941205C6FB662760F9AF
S11303A085E00E9412056C2F661F6627661F86E093
S11303B00E94120561E081E00E9412058FEC97E033
S11303C00197F1F700C0000060E081E00E9412058F
S11303D08FEC97E00197F1F700C000006C2F61707B
S11303E083E00E941205C1FB662760F984E00E9445
S11303F01205C2FB662760F985E00E941205C3FB63
S1130400662760F986E00E94120561E081E00E949F
S113041012058FEC97E00197F1F700C0000060E04F
S113042081E00E9412058FEC97E00197F1F700C07C
S1130430000081E0CF9108952FE788E391E02150F7
S113044080409040E1F700C0000082E00E945A0121
S113045088E20E945A018FEC97E00197F1F700C0FF
S113046000008CE00E945A018FEC97E00197F1F7AD
S113047000C0000081E00E945A018FE99FE00197CB
S1130480F1F700C0000086E00E945A018FEC97E06B
S11304900197F1F700C0000081E00895811106C0C2
S11304A080E8860F0E945A0181E00895813031F47A
S11304B080EC860F0E945A0181E0089580E008953F
S11304C00E94BB01811181E008950F931F93CF9384
S11304D08C01C0E003C00E946002CF5FF801EC0F02
S11304E0F11D80818111F7CF81E0CF911F910F9190
S11304F008952F923F924F925F926F927F928F92C4
S11305009F92AF92BF92CF92DF92EF92FF920F939E
S11305101F93CF93DF93CDB7DEB72D970FB6F89423
S1130520DEBF0FBECDBFE22EF32E042F152F69833D
S11305307A83282E392EA0E00E94BA06B4F48DE204
S11305400E9460022E2D3F2D402F512F69817A8108
S1130550822D932D0E948806E22EF32E042F152F50
S113056069837A83282E392E0AC069817A81A0E0B2
S11305700E94BA0621F480E30E946002C5C0EC82A6
S1130580FD820E831F83898188878A8189872A86D1
S11305903B86BE2DFF2DE02F81E01D86912C812C02
S11305A0712C612C512C412C8C874B82412E4DC0D7
S11305B00F2EFAE0AF2EF02DB12CC12CD12CE12C52
S11305C0F12C00E010E02B2F3F2F4E2F542D69818A
S11305D07A81822D932D0E942B06B22FF32FE42FC4
S11305E0452E69837A83282E392E2C853D85492D05
S11305F0582D672D762D852D9B8101E00E9498064C
S1130600522E632E742E852E962E7C878B83A92FD3
S113061002E00E949806A22EB32EC42ED52EE62EFA
S1130620F72E082F192F252D362D472D582D692DDE
S11306307C858B819A2F0E94B1062C873D87942E4E
S1130640852E762E672E582E9B832B2F3F2F4E2FD1
S1130650542D69817A81822D932DA0E00E94BA06DF
S113066009F0A6CF4B802A843B8440C00F2EFAE0C9
S1130670AF2EF02DB12CC12CD12CE12CF12C00E0AB
S113068010E02C853D85492D582D672D762D852D1F
S1130690942D0E942B062C873D87942E852E762E32
S11306A0672E582E492EA22EB32EC42ED52EE62EFA
S11306B0F72E082F192F2C813D814E815F8168858B
S11306C07985822D932D0E942B060F2EFAE0AF2EF2
S11306D0F02DB12CC12CD12CE12CF12C00E010E038
S11306E00E94290680E3820F0E9460022C853D85CA
S11306F0492D582D672D762D852D942DA1E00E942E
S1130700BA0611F008F0B2CF81E02D960FB6F89436
S1130710DEBF0FBECDBFDF91CF911F910F91FF9030
S1130720EF90DF90CF90BF90AF909F908F907F908D
S11307306F905F904F903F902F900895CF93DF93E9
S1130740EC01862F642F0E944E02CE010E946502A6
S113075081E0DF91CF910895AF92BF92CF92DF9263
S1130760EF92FF920F931F93CF93DF93A22EB32E9A
S1130770C42ED52EF62E172FD82FC92F802F6E2DCD
S11307800E944E022A2D3B2D4C2D5D2D6F2D712F75
S11307908D2F9C2F0E94790281E0DF91CF911F91D0
S11307A00F91FF90EF90DF90CF90BF90AF9008959E
S11307B061E08FE00E94120581E0089560E08FE01F
S11307C00E94120581E008950E94130481E00895B7
S11307D00F931F93CF93DF9300D0CDB7DEB78C0177
S11307E01A821982BE016F5F7F4F80E00E9422044B
S11307F029813A81A6E9B0E00E941A0623E331E098
S113080040E050E00E94F805F801208381E00F9059
S11308100F90DF91CF911F910F9108950E9449008D
S11308200E945C00FDCF86B1887F826086B987B163
S1130830806487B987B18F7787B986B1806886B9B4
S113084081E008956115710581F097B1907E892B3F
S113085087B986B1806486B93699FECF84B195B1E3
S1130860FB019183808381E0089580E0089540E056
S1130870D2C0842F90E0FC01EE0FFF1FE80FF91F98
S1130880ED56FF4F2081322F3695369536952770D9
S1130890343008F0C5C03130B1F138F0323009F4E9
S11308A060C0333009F48AC0B5C06AB3E1E0F0E057
S11308B0DF0102C0AA0FBB1F2A95E2F79D015A2F40
S11308C0509565236ABB6BB356235BBBFC01EE0FEB
S11308D0FF1FE80FF91FED56FF4F5181552319F003
S11308E05AB35A2B5ABBFC01EE0FFF1F8E0F9F1FEA
S11308F0FC01ED56FF4F8281882309F48BC08BB332
S1130900282B2BBB87C067B3E1E0F0E0DF0102C016
S1130910AA0FBB1F2A95E2F79D015A2F5095652314
S113092067BB68B3562358BBFC01EE0FFF1FE80FEB
S1130930F91FED56FF4F5181552319F057B35A2B28
S113094057BBFC01EE0FFF1F8E0F9F1FFC01ED56DE
S1130950FF4F8281882309F45DC088B3282B28BB0C
S113096059C064B3E1E0F0E0DF0102C0AA0FBB1F8D
S11309702A95E2F79D015A2F5095652364BB65B310
S1130980562355BBFC01EE0FFF1FE80FF91FED5670
S1130990FF4F5181552319F054B35A2B54BBFC011A
S11309A0EE0FFF1F8E0F9F1FFC01ED56FF4F82813C
S11309B0882381F185B3282B25BB2CC061B3E1E0EA
S11309C0F0E0DF0102C0AA0FBB1F2A95E2F79D01E8
S11309D05A2F5095652361BB62B3562352BBFC0169
S11309E0EE0FFF1FE80FF91FED56FF4F51815523FE
S11309F019F051B35A2B51BBFC01EE0FFF1F8E0FA0
S1130A009F1FFC01ED56FF4F8281882319F082B3AA
S1130A10282B22BB4F5F403108F42BCF81E008958F
S1130A2080E0089590E0FC01EE0FFF1FE80FF91F2E
S1130A30ED56FF4F2081322F369536953695277027
S1130A40343008F061C0FC01EE0FFF1F8E0F9F1FB2
S1130A50FC01ED56FF4F8181882309F457C03130E2
S1130A60D1F028F0323051F13330D9F151C03BB3D9
S1130A7081E090E002C0880F991F2A95E2F7282FA1
S1130A80209523232BBB662309F444C09BB3892BF5
S1130A908BBB81E0089538B381E090E002C0880FF9
S1130AA0991F2A95E2F7282F2095232328BB662334
S1130AB099F198B3892B88BB81E0089535B381E01F
S1130AC090E002C0880F991F2A95E2F7282F2095FD
S1130AD0232325BB662311F195B3892B85BB81E0C4
S1130AE0089532B381E090E002C0880F991F2A95DF
S1130AF0E2F7282F2095232322BB662389F092B3A3
S1130B00892B82BB81E0089580E0089580E00895F8
S1130B1081E0089581E0089581E0089581E00895D9
S1130B2081E008956115710509F458C090E0FC0155
S1130B30EE0FFF1FE80FF91FED56FF4F2081322FF4
S1130B403695369536952770343008F049C0FC0147
S1130B50EE0FFF1F8E0F9F1FFC01ED56FF4F81818B
S1130B60813009F43FC061157105F1F1313091F024
S1130B7028F03230D9F0333029F138C089B390E00D
S1130B8002C0959587952A95E2F78170FB018083D1
S1130B9081E0089586B390E002C0959587952A95E3
S1130BA0E2F78170FB01808381E0089583B390E0D4
S1130BB002C0959587952A95E2F78170FB018083A1
S1130BC081E0089580B390E002C0959587952A95B9
S1130BD0E2F78170FB01808381E0089580E008954D
S1130BE080E0089580E0089580E0089581E008950C
S1130BF0A1E21A2EAA1BBB1BFD010DC0AA1FBB1F1D
S1130C00EE1FFF1FA217B307E407F50720F0A21B8E
S1130C10B30BE40BF50B661F771F881F991F1A94FB
S1130C2069F760957095809590959B01AC01BD0125
S1130C30CF010895A29FB001B39FC001A39F700D7F
S1130C40811D1124911DB29F700D811D1124911DD0
S1130C500895689401C0E8948F929F92CF93DF9394
S1130C600E943706DF91CF919F908F90089588243A
S1130C709924F401E401B0E49F93AA279A158B0404
S1130C809C04ED05FE05CF05D007A10798F4AD2F10
S1130C90DC2FCF2FFE2FE92D982C892E982F872F0C
S1130CA0762F652F542F432F322F2227B85031F738
S1130CB0BF9127C01B2EBF91BB27220F331F441F98
S1130CC0551F661F771F881F991F881C991CEE1FCC
S1130CD0FF1FCC1FDD1FAA1FBB1F8A149B04EC053A
S1130CE0FD05CE05DF05A007B10748F08A189B086B
S1130CF0EC09FD09CE09DF09A00BB10B21601A94A0
S1130D00E1F62EF49401AF01BE01CD01000C08956B
S1130D106095709580959095309540955095219566
S1130D203F4F4F4F5F4F6F4F7F4F8F4F9F4F0895F0
S1130D300F93083090F0982F872F762F652F542F1C
S1130D40432F322F22270850F4CF220F331F441F82
S1130D50551F661F771F881F991F0A95B2F70F91B9
S1130D6008952A0D3B1D4C1D5D1D6E1D7F1D801FAA
S1130D70911F08950024A7FD00942A17300540050B
S1130D80500560057005800590050895F894FFCF1F
S1130D901943543A202020202054543A2020202063
S1130DA02000555345522054656D703A2020202070
S1130DB02020003738392F3435362A3132332D6329
S1130DC0303D2B0000000801000901000A01000B5E
S1130DD001000C01000D01001801001901001A01A5
S1130DE0001B01001C00011D00011E00011F000169
S1070DF015010000E5
S9030000FC
