S01200005350495F4472697665722E737265635B
S11300000C942A000C9447000C9447000C9447006D
S11300100C9447000C9447000C9447000C94470040
S11300200C9447000C9447000C9447000C94470030
S11300300C9441010C9447000C9447000C94470025
S11300400C9447000C9447000C9447000C94470010
S11300500C94470011241FBECFE5D8E0DEBFCDBF0E
S113006010E0A0E6B0E0E8EDF2E002C005900D92E9
S1130070A438B107D9F720E0A4E8B0E001C01D928C
S1130080A638B207E1F70E9449000C946A010C9467
S11300900000CF93DF931F92CDB7DEB70E942F01EC
S11300A087E0898315BACE0101960E9436018981C1
S11300B085BBF9CF40E0CCC0842F90E0FC01EE0F6B
S11300C0FF1FE80FF91FE05AFF4F2081322F3695AA
S11300D0369536952770343008F0BFC03130A1F121
S11300E038F0323009F45CC0333009F484C0AFC056
S11300F03AB361E070E002C0660F771F2A95E2F719
S1130100262F209532233ABB3BB323232BBBFC0180
S1130110EE0FFF1FE80FF91FE05AFF4F2181222342
S113012019F02AB3262B2ABBFC01EE0FFF1F8E0FFA
S11301309F1FFC01E05AFF4F8281882309F487C086
S11301408BB3682B6BBB83C037B361E070E002C034
S1130150660F771F2A95E2F7262F2095322337BBA7
S113016038B3232328BBFC01EE0FFF1FE80FF91F50
S1130170E05AFF4F2181222319F027B3262B27BBF6
S1130180FC01EE0FFF1F8E0F9F1FFC01E05AFF4F73
S11301908281882309F45BC088B3682B68BB57C08D
S11301A034B361E070E002C0660F771F2A95E2F76E
S11301B0262F2095322334BB35B3232325BBFC01E2
S11301C0EE0FFF1FE80FF91FE05AFF4F2181222392
S11301D019F024B3262B24BBFC01EE0FFF1F8E0F56
S11301E09F1FFC01E05AFF4F8281882381F185B370
S11301F0682B65BB2CC061B3E1E0F0E0DF0102C015
S1130200AA0FBB1F2A95E2F79D015A2F509565232B
S113021061BB62B3562352BBFC01EE0FFF1FE80F14
S1130220F91FE05AFF4F5181552319F051B35A2B4E
S113023051BBFC01EE0FFF1F8E0F9F1FFC01E05A04
S1130240FF4F8281882319F082B3282B22BB4F5F92
S11302504C3008F431CF81E0089580E008950E9485
S11302605A008DB180648DB981E00895009739F00A
S1130270779BFECF2FB1FC01208381E0089580E0BD
S113028008951F920F920FB60F9211242F933F934C
S11302904F935F936F937F938F939F93AF93BF938A
S11302A0EF93FF93E0918400F0918500309709F07B
S11302B00995FF91EF91BF91AF919F918F917F919C
S11302C06F915F914F913F912F910F900FBE0F90BF
S10B02D01F901895F894FFCF6C
S11302D80C00000D00000E01000F000010010011B9
S11302E80100120100130100140100150100160198
S10702F800170100E6
S9030000FC
