S01200005350495F4472697665722E737265635B
S11300000C942A000C943F000C943F000C943F0085
S11300100C943F000C943F000C943F000C943F0060
S11300200C943F000C943F000C943F000C943F0050
S11300300C943F000C943F000C943F000C943F0040
S11300400C943F000C943F000C943F000C943F0030
S11300500C943F0011241FBECFE5D8E0DEBFCDBF16
S113006010E0A0E6B0E0E0E9F3E002C005900D92F4
S1130070A438B107D9F70E9441000C94C6010C942E
S11300800000CF93DF931F92CDB7DEB70E94A70184
S113009087E0898315BACE0101960E94B101898156
S11300A085BBF9CF40E0CCC0842F90E0FC01EE0F7B
S11300B0FF1FE80FF91FE05AFF4F2081322F3695BA
S11300C0369536952770343008F0BFC03130A1F131
S11300D038F0323009F45CC0333009F484C0AFC066
S11300E03AB361E070E002C0660F771F2A95E2F729
S11300F0262F209532233ABB3BB323232BBBFC0191
S1130100EE0FFF1FE80FF91FE05AFF4F2181222352
S113011019F02AB3262B2ABBFC01EE0FFF1F8E0F0A
S11301209F1FFC01E05AFF4F8281882309F487C096
S11301308BB3682B6BBB83C037B361E070E002C044
S1130140660F771F2A95E2F7262F2095322337BBB7
S113015038B3232328BBFC01EE0FFF1FE80FF91F60
S1130160E05AFF4F2181222319F027B3262B27BB06
S1130170FC01EE0FFF1F8E0F9F1FFC01E05AFF4F83
S11301808281882309F45BC088B3682B68BB57C09D
S113019034B361E070E002C0660F771F2A95E2F77E
S11301A0262F2095322334BB35B3232325BBFC01F2
S11301B0EE0FFF1FE80FF91FE05AFF4F21812223A2
S11301C019F024B3262B24BBFC01EE0FFF1F8E0F66
S11301D09F1FFC01E05AFF4F8281882381F185B380
S11301E0682B65BB2CC061B3E1E0F0E0DF0102C025
S11301F0AA0FBB1F2A95E2F79D015A2F509565233C
S113020061BB62B3562352BBFC01EE0FFF1FE80F24
S1130210F91FE05AFF4F5181552319F051B35A2B5E
S113022051BBFC01EE0FFF1F8E0F9F1FFC01E05A14
S1130230FF4F8281882319F082B3282B22BB4F5FA2
S11302404C3008F431CF81E0089580E0089590E0C7
S1130250FC01EE0FFF1FE80FF91FE05AFF4F20814A
S1130260322F3695369536952770343008F061C0B4
S1130270FC01EE0FFF1F8E0F9F1FFC01E05AFF4F82
S11302808181882309F457C03130D1F028F032300D
S113029051F13330D9F151C03BB381E090E002C059
S11302A0880F991F2A95E2F7282F209523232BBB2B
S11302B0662309F444C09BB3892B8BBB81E008956A
S11302C038B381E090E002C0880F991F2A95E2F7C5
S11302D0282F2095232328BB662399F198B3892BD3
S11302E088BB81E0089535B381E090E002C0880FB7
S11302F0991F2A95E2F7282F2095232325BB6623EF
S113030011F195B3892B85BB81E0089532B381E067
S113031090E002C0880F991F2A95E2F7282F2095B4
S1130320232322BB662389F092B3892B82BB81E00D
S1130330089580E0089580E0089581E0089581E0C3
S1130340089581E0089581E0089581E008950E9470
S113035052008DB180618DB98DB180648DB981E019
S11303600895CF93DF93EC0160E080E00E942701C1
S113037088818FB9779BFECF8FB1888361E080E05D
S11303800E94270181E0DF91CF910895F894FFCF77
S11303900C00000D00000E01000F00001001001100
S11303A001001201001301001401001501001601DF
S10703B0001701002D
S9030000FC
