:100000000C9455000C94C90A0C94F20A0C941B0B26
:100010000C9472000C9472000C9472000C94720098
:100020000C9472000C9472000C9472000C94720088
:100030000C9472000C94F90C0C9472000C94220D28
:100040000C9472000C9472000C9472000C94050CC9
:100050000C9472007706970679067B067F06810668
:100060008306870689068B068F06910693064E4106
:100070004E494E495459494E46CDCCCC3D0AD72322
:100080003C17B7D13877CC2B329595E6241FB14F6A
:100090000A000020410000C84200401C4620BCBEAF
:1000A0004CCA1B0E5AAEC59D740011241FBECFE56D
:1000B000D8E0DEBFCDBF13E0A0E6B0E0ECEEF3E2A7
:1000C00002C005900D92AE31B107D9F727E0AEE13D
:1000D000B3E001C01D92A335B207E1F70E944009C9
:1000E0000C94F4110C940000DC0120E030E00AC014
:1000F000FB01E20FF31F4081941788F0491788F045
:100100002F5F3F4FFD01E20FF31F90819111F0CF60
:10011000FB01E20FF31F80818111EACF08958FEF79
:10012000089581E00895CF93DF9300D000D0CDB73C
:10013000DEB719821A821B821C820BC089819A81C8
:10014000AB81BC810196A11DB11D89839A83AB83CC
:10015000BC8389819A81AB81BC818039904DA34059
:10016000B10560F30F900F900F900F90DF91CF913A
:1001700008952F923F924F925F926F927F928F924B
:100180009F92AF92BF92CF92DF92EF92FF920F9326
:100190001F93CF93DF932B013C016A01790120E08B
:1001A00030E040E251E40E94B80D0E942A0EC1E006
:1001B000D0E010C0CE01880F991FCC0FDD1FCC0FEF
:1001C000DD1FCC0FDD1FC80FD91FCB016AE070E027
:1001D0000E94980F6115710569F780E090E001E0D9
:1001E00010E00CC09801220F331F000F111F000FE9
:1001F000111F000F111F020F131F01968E159F056F
:100200008CF3C301B2010E942A0E4B015C010E94D3
:10021000620E9B01AC01C301B2010E944B0D2B0188
:100220003C01B801012E000C880B990B0E94620E54
:10023000A30192010E94F30E0E942A0E2B013C01A1
:10024000E12CF12C20C016012E0C3F1C9E010D2E1E
:10025000000C440B550BC501B4010E94AC0FCA0140
:10026000B9012AE030E040E050E00E94AC0F605D50
:10027000F1016083CE016AE070E00E94980FEB010B
:10028000FFEFEF1AFF0A2097F1F6E7012196F6013A
:10029000EE0DFF1D8EE28083C8016AE070E00E94CF
:1002A000980F8B011EC07601EC0EFD1E9801012EE9
:1002B000000C440B550BC301B2010E94AC0FCA01E4
:1002C000B9012AE030E040E050E00E94AC0F605DF0
:1002D000F7016083C8016AE070E00E94980F8B010B
:1002E000219601151105F9F6CC0DDD1D1882DF915F
:1002F000CF911F910F91FF90EF90DF90CF90BF9023
:10030000AF909F908F907F906F905F904F903F90B5
:100310002F9008954F925F926F927F928F929F924B
:10032000AF92BF92CF92DF92EF92FF920F931F9303
:10033000CF93DF93CDB7DEB7E5970FB6F894DEBF66
:100340000FBECDBF809160008130D9F40E94C308F8
:1003500060E080E00E94CD0881E690E00E94F10814
:1003600061E080E00E94CD0882E790E00E94F10801
:100370000E9493000E94C30880E890E00E94F10868
:1003800096C1811172C182E08093600060E08CE0D0
:100390000E9483096FE0CE0101960E945C0C61E02F
:1003A0008CE00E94830960E273E080E290E00E94AA
:1003B000B90510E035C0812F90E04096AE014F5E48
:1003C0005F4F69E070E082959295907F9827807FDB
:1003D00098270E941B0699818989981320C09A81C9
:1003E0008A8998131CC09B818B89981318C09C81A3
:1003F0008C89981314C09D818D89981310C09E819B
:100400008E8998130CC09F818F89981308C0988596
:10041000888D981304C09985898D981729F01F5FDE
:1004200080912003181738F280912003181708F0E4
:1004300007C10E94C3088EE890E00E94F10861E0C5
:1004400080E00E94CD08CE01C2960E94D8068AE2C2
:100450000E94E708CE01C3960E94D8068AE20E9455
:10046000E708CE01C4960E94D8068AE20E94E708F7
:10047000CE01C5960E94D8068AE20E94E7089B85B5
:100480008AA99813CCC09C858BA99813C8C09D8558
:100490008CA99813C4C09E858DA99813C0C00E94D2
:1004A000C30889E990E00E94F10861E080E00E94C1
:1004B000CD08CE018B960E94D8068BA50E94E70836
:1004C000CE018C960E94D8068CA50E94E708CE012A
:1004D0008D960E94D8068DA50E94E708CE018E96C3
:1004E0000E94D8068EA50E94E7088EE28FA70E9480
:1004F000E708CE01C0960E94D80688A90E94E708A6
:10050000CE01C1960E94D80689A90E94E708CE01B3
:100510008B960E94F30F4B015C01AE014D5D5F4F66
:1005200067E070E080E390E00E941B06CE018396B6
:100530000E94F30F2B013C01812F90E0805B9F4FC5
:100540008C0102951295107F1027007F1027AE01B5
:10055000455E5F4F67E070E0C8010E941B06CE0158
:100560004B960E94F30F6B017C010E94C308A3010C
:100570009201C501B4010E94EE0E18167CF487EAC0
:1005800090E00E94F10861E080E00E94CD0887EBD6
:1005900090E00E94F1080E94930089C0A701960193
:1005A000C501B4010E94EE0E18167CF484EC90E0B4
:1005B0000E94F10861E080E00E94CD0883ED90E0A8
:1005C0000E94F1080E94930072C08EED90E00E949C
:1005D000F10861E080E00E94CD088CEE90E00E947E
:1005E000F108A5019401C701B6010E944B0D22E05C
:1005F00030E0AE01455E5F4F0E94B900AE01455E3E
:100600005F4F69E070E0C8010E94DD0589E00E944B
:100610007E050E94930089E00E948C0548C00E94DC
:10062000C30889EF90E00E94F10861E080E00E9439
:10063000CD0888E091E00E94F1080E94930037C045
:1006400080916000823099F50E94C30888E191E0B2
:100650000E94F10861E080E00E94CD0888E091E00E
:100660000E94F1080E94930022C00E94C30860E02B
:1006700080E00E94CD0887E291E00E94F10861E0ED
:1006800080E00E94CD0884E391E00E94F1080E947E
:1006900093000E94C30884E491E00E94F10861E0A5
:1006A00080E00E94CD0882E591E00E94F108E59685
:1006B0000FB6F894DEBF0FBECDBFDF91CF911F9173
:1006C0000F91FF90EF90DF90CF90BF90AF909F90F1
:1006D0008F907F906F905F904F9008950E947A0C5A
:1006E0000E94450C60E084E00E94630881E00E9463
:1006F0009F0660E08AE00E942E0589E00E946C055A
:100700000E9404090E949A0582E00E943A0A62E06F
:1007100083E00E94500A61E08CE00E94830940E679
:1007200051E065E070E080E190E00E94DD0562E06C
:100730008AE891E00E94AB0A0895EF92FF921F931E
:10074000CF93DF93CDB7DEB7E0970FB6F894DEBF57
:100750000FBECDBF18AA80911F03811173C10E94E3
:10076000C30884E491E00E94F10861E080E00E9407
:10077000CD0882E591E00E94F10886E691E00E94B2
:10078000A70C6FEFCE014B960E94CD0C8DE090E050
:100790000E94880C6BE871E0CE014B960E947400B9
:1007A0008111C3C081E0809360000E94C30880E88B
:1007B00090E00E94F10881E991E00E94A70C6FEFA0
:1007C000CE0181960E94CD0CAE01495D5F4F65E080
:1007D00070E080E190E00E941B0699A18FA1981320
:1007E00099C09AA188A5981395C09BA189A5981333
:1007F00091C09CA18AA598138DC09DA18BA598132B
:1008000089C08DE090E00E94880C82EA91E00E940D
:10081000A70C87EC91E00E94A70C89ED91E00E9463
:10082000A70C8CEE91E00E94A70C8DE090E00E9456
:10083000880CCE018F960E94D8068FA5813309F0CF
:1008400050C085EF91E00E94A70C8EE193E00E94DA
:10085000960C60911E03605360931E0380E290E04B
:100860000E949E058DE090E00E94880C10E034C04C
:1008700081E192E00E94A70C6FEFCE0101960E94E9
:10088000CD0CE12EF12CC7014096AE014F5F5F4FBA
:1008900069E070E082959295907F9827807F9827F5
:1008A0000E94DD0584E292E00E94A70C6FEFCE016A
:1008B0000B960E94CD0CC701805B9F4FAE01455F38
:1008C0005F4F67E070E082959295907F9827807FD8
:1008D00098270E94DD051F5F80911E03181740F2C4
:1008E00014C0823391F48BE392E00E94A70C6FEF67
:1008F000CE0143960E94CD0CAE014D5E5F4F67E086
:1009000070E080E390E00E94DD058FA5833309F05D
:1009100078CF08C089E592E00E94A70C8DE090E0B6
:100920000E94880C10921F038DC06BE672E0CE010E
:100930004B960E94740081117DC082E0809360001C
:1009400010921F0371C00E94C30880E792E00E94CA
:10095000F10861E080E00E94CD0881E892E00E9409
:10096000F108CE018F960E94D8068FA58133D9F465
:100970000E94C30881E992E00E94F10861E080E0F2
:100980000E94CD0880EA92E00E94F1081092600077
:1009900080E090E00E94880C809160008230E1F756
:1009A00010921F0341C08233E9F581E080931F0359
:1009B000CE01C0960E940D090E94C3088EEA92E003
:1009C0000E94F10888A94AE0BE01635D7F4F90E074
:1009D0000E94F70FCE018D960E94F10888A98333FB
:1009E00090F00E94C3088DEB92E00E94F10861E054
:1009F00080E00E94CD088DEC92E00E94F10881E039
:100A000080931F0311C061E080E00E94CD088EED4D
:100A100092E00E94F108CE018F960E94D8061092B3
:100A20001F0302C010921F0380911F03882309F443
:100A30008ACF08C08CEE92E00E94A70C8DE090E077
:100A40000E94880CE0960FB6F894DEBF0FBECDBFB3
:100A5000DF91CF911F91FF90EF9008950F931F9317
:100A6000CF93DF931F92CDB7DEB7623070F5062FBC
:100A7000182F462F60E00E944509BE016F5F7F4F2F
:100A8000812F0E94AB098981811102C0002321F0CE
:100A9000813041F4013031F4E12FF0E0E05EFB4FB2
:100AA000108206C0E12FF0E0E05EFB4F83E0808320
:100AB000812F90E0FC01EF5DFC4F0083FC01E15EC3
:100AC000FA4F21E0208381E001C080E00F90DF91A8
:100AD000CF911F910F910895CF93C82F40E061E00F
:100AE0000E94450960E08C2F0E948309EC2FF0E002
:100AF000E25EF94F81E08083CF910895E82FF0E026
:100B0000E25EF94F9081913029F461E00E948309FF
:100B100081E0089580E00895E82FF0E0E25EF94F6B
:100B20009081913029F460E00E94830981E008956A
:100B300080E008950E94470B81E008951F93CF93B2
:100B4000DF93182FD62F9770C92FC0650E946F0BA7
:100B500060E08C2F0E948D0B812F0E94B50B8D2F92
:100B60000E94B50B0E94890B81E0DF91CF911F910C
:100B700008950F931F93CF93DF93D82F8B01977016
:100B8000C92FC0650E946F0B60E08C2F0E948D0BF7
:100B90008D2F0E94B50B0E947C0B61E08C2F0E9470
:100BA0008D0B61E0C8010E94CE0B0E94890B81E091
:100BB000DF91CF911F910F910895CF92DF92EF9225
:100BC000FF920F931F93CF93DF934115510539F196
:100BD000292F2770C22FC0659C01260F371F2115B2
:100BE0003840F8F47A018B016C010E946F0B60E0D1
:100BF0008C2F0E948D0B8C2D0E94B50BC0E0D0E095
:100C000007C0F701EC0FFD1F80810E94B50B2196F4
:100C1000C017D107B0F30E94890B81E003C080E0C8
:100C200001C080E0DF91CF911F910F91FF90EF9075
:100C3000DF90CF900895CF92DF92EF92FF920F93C3
:100C40001F93CF9341155105A9F1292F2770C22F6A
:100C5000C0659C01260F371F2115384068F58A01B1
:100C60007B016C010E946F0B60E08C2F0E948D0B4A
:100C70008C2D0E94B50B0E947C0B61E08C2F0E9492
:100C80008D0BC0E006C060E0800F911F0E94CE0B6C
:100C9000CF5F8C2F90E09701215031098217930785
:100CA00090F361E0800F911F0E94CE0B0E94890B90
:100CB00081E003C080E001C080E0CF911F910F91DF
:100CC000FF90EF90DF90CF90089570E06150710930
:100CD000FB01EE0FFF1FE60FF71FE80FF11D319725
:100CE000ED30F10510F5E65DFF4F0C94CB0F81E37D
:100CF000089583E308958130E1F484E3089585E362
:100D0000089586E308958130B1F487E3089588E378
:100D1000089589E30895813081F48AE2089580E39B
:100D2000089583E2089584E4089580E2089582E3BB
:100D3000089581E4089582E4089583E408951F935B
:100D4000CF93DF93823068F080E02EC0EC2FF0E08C
:100D5000EA5FFC4F41E060E080810E944509CF5F7F
:100D600002C0D82FC0E04C2F50E024E030E02D1B13
:100D700031094217530750F3C0E00FC0EC2FF0E0E9
:100D8000E65FFC4F108140E061E0812F0E94450941
:100D900061E0812F0E948309CF5FC43078F3D09344
:100DA0001D0781E080931E07DF91CF911F91089569
:100DB0008F929F92BF92CF92DF92EF92FF920F930A
:100DC0001F93CF93DF931F92CDB7DEB720911E07FD
:100DD000213009F449C080E054C0EC2CF12CF7011B
:100DE000E65FFC4F60E080810E948309D12C1EC029
:100DF0000D2D10E0F801EA5FFC4FBE016F5F7F4FE1
:100E000080810E94AB098981882351F00EC0BE0108
:100E10006F5F7F4FF801EA5FFC4F80810E94AB0952
:100E200089818823A1F3BB24B394D3942D2D30E082
:100E300040911D0784E090E0841B91092817390731
:100E400010F4BB20A9F2F701E65FFC4F61E080815E
:100E50000E948309C39401C0C12C83E08C1540F02B
:100E6000BB2009F4BACF04C04C01D12CC12CB12C49
:100E7000BB2091F36C2D8D2D0E946506F4018083BB
:100E800081E00F90DF91CF911F910F91FF90EF9034
:100E9000DF90CF90BF909F908F9008950F931F93F6
:100EA000CF93DF9300D000D0CDB7DEB719821A827E
:100EB0001B821C820CC049815A816B817C814F5FEF
:100EC0005F4F6F4F7F4F49835A836B837C83AC01A5
:100ED000440F551F440F551F60E070E009811A81CF
:100EE0002B813C81041715072607370720F30F9045
:100EF0000F900F900F90DF91CF911F910F91089558
:100F00001F93CF93DF93C82F60E085E10E94830990
:100F100060E086E10E94830980911F078830E1F438
:100F20000DC06C2F61706195C695ED2FF0E0EE5EFF
:100F3000FC4F80810E948309DF5F01C0D0E0809177
:100F40001F07D81770F361E087E10E94830960E012
:100F500087E10E9483093EC08430E1F51C2F129581
:100F60001F70D0E00CC0612F617061951695ED2F58
:100F7000F0E0E25FFC4F80810E948309DF5F809197
:100F80001F07D81780F361E087E10E94830960E0C2
:100F900087E10E948309CF70D0E00CC06C2F617094
:100FA0006195C695ED2FF0E0E25FFC4F80810E94D5
:100FB0008309DF5F80911F07D81780F361E087E125
:100FC0000E94830960E087E10E94830988EC90E039
:100FD0000E944E07DF91CF911F9108950F931F93A9
:100FE000CF93DF93C82F61E085E10E94830960E021
:100FF00086E10E94830980911F078830F9F40DC0B3
:101000006C2F61706195C695F801EE5EFC4F808192
:101010000E9483090F5F1F4F02C000E010E0809123
:101020001F0790E00817190758F361E087E10E9455
:10103000830960E087E10E94830940C08430F1F5B4
:10104000DC2FD295DF7000E010E00CC06D2F6170D6
:101050006195D695F801E25FFC4F80810E9483097B
:101060000F5F1F4F80911F0790E00817190770F35B
:1010700061E087E10E94830960E087E10E948309C3
:10108000CF7000E010E00CC06C2F61706195C695C8
:10109000F801E25FFC4F80810E9483090F5F1F4FC0
:1010A00080911F0790E00817190770F361E087E14E
:1010B0000E94830960E087E10E948309DF91CF915C
:1010C0001F910F9108951F93CF93DF93843019F0F0
:1010D000883009F051C0623008F050C0162FC82F78
:1010E00080931F0740E061E085E10E94450940E0F0
:1010F00061E086E10E94450940E061E087E10E94ED
:101100004509C43069F0D0E022C0ED2FF0E0E25F85
:10111000FC4F40E061E080810E944509DF5F01C033
:10112000D0E0DC1790F383E30E94800782E30E9403
:10113000800788E20E9480070FC0ED2FF0E0EE5E8E
:10114000FC4F40E061E080810E944509DF5FDC17D1
:10115000A0F388E30E948007111104C08CE00E9474
:10116000800703C08EE00E94800781E00E94800714
:1011700081E08093200703C080E001C080E0DF9120
:10118000CF911F91089580912007813021F40E9412
:10119000800781E0089580E00895611109C0909171
:1011A0002007913029F480580E94800781E008953B
:1011B000613049F490912007913039F480540E94B5
:1011C000800781E0089580E0089580E0089590917F
:1011D0002007913021F40E94EE0781E0089580E01D
:1011E0000895CF93DF93EC0180912007813029F09F
:1011F00080E007C00E94EE07219688818111FACF16
:1012000081E0DF91CF91089547E060E081E00E94A6
:10121000D70981E08093210708950F931F93CF93FF
:10122000DF9300D0CDB7DEB79C01909121079130BC
:10123000F9F48901BE016F5F7F4F80E00E940A0AC6
:1012400069817A8180E090E00E94600E20E030E4C5
:101250004CE950E40E94F30E20E030E040E251E41B
:101260000E94B80D0E94310EF801608381E001C038
:1012700080E00F900F90DF91CF911F910F91089513
:101280000E946E030E949D03FDCF8032B0F5623054
:10129000B0F54230B0F5E82FE695E695E695F0E03A
:1012A000E65EFC4FE081F0E0DF015E91982F9770E1
:1012B00021E030E0092E02C0220F331F0A94E2F72A
:1012C000209570E0092E02C0660F771F0A94E2F79E
:1012D000352F3223632B6C93308150E002C0440FD2
:1012E000551F9A95E2F72323422B4083E82FF0E025
:1012F000EE5DF84F81E08083089580E0089580E0FE
:10130000089580E00895E82FF0E0EE5DF84F9081B9
:101310009130F9F4E82FE695E695E695F0E0E65E83
:10132000FC4FE081F0E09081877021E030E0082EF2
:1013300002C0220F331F0A94E2F770E002C0660F6A
:10134000771F8A95E2F720952923622B608381E03D
:10135000089580E00895E82FF0E0EE5DF84F908169
:10136000913019F5E82FE695E695E695F0E0E65E12
:10137000FC4FE081F0E032979081877021E030E00F
:10138000A901082E02C0440F551F0A94E2F7292F25
:1013900030E024233523A90102C0559547958A954D
:1013A000E2F7FB01408381E0089580E008958430F6
:1013B00048F5823049F1623048F5483048F527B1A8
:1013C00030E4839FC0011124922F9F73892B87B92A
:1013D00027B130E2639FC0011124922F9F7D892B9A
:1013E00087B96093420786B1887F4F5F482B46B923
:1013F00086B1806886B986B1877F86B981E080939F
:101400004307089580E0089580E0089580E00895FE
:1014100080E0089590914307913051F597B1907E07
:10142000892B87B986B1806486B9349BFECF8091C1
:10143000420781110CC024B185B1837090E0982FD0
:101440008827822BFB019183808381E0089524B15A
:10145000229526952695237085B190E0880F991FD7
:10146000880F991F822BFB019183808381E008956F
:1014700080E00895813041F018F0823049F00BC0CF
:101480008BB780648BBF07C08BB780688BBF03C0EE
:101490008BB780628BBF8FB780688FBF81E0089564
:1014A000611124C08130D9F028F0823089F0833076
:1014B00041F04FC085B78E7F85BF85B78D7F85BFD3
:1014C00048C085B7816085BF85B7826085BF41C050
:1014D00085B78E7F85BF85B7826085BF3AC085B7E7
:1014E000816085BF85B78D7F85BF33C0613021F5B1
:1014F0008130D9F028F0823089F0833041F029C062
:1015000085B78B7F85BF85B7877F85BF22C085B7AD
:10151000846085BF85B7886085BF1BC085B78B7F1A
:1015200085BF85B7886085BF14C085B7846085BFD7
:1015300085B7877F85BF0DC0623059F4823031F0A6
:10154000833039F485B7806485BF03C085B78F7B4E
:1015500085BF81E008950097C1F0611106C09093A6
:10156000500780934F0781E00895613031F49093E4
:101570004C0780934B0781E00895623041F49093CB
:101580004E0780934D0781E0089580E0089581E043
:1015900008951F920F920FB60F9211242F933F932D
:1015A0004F935F936F937F938F939F93AF93BF936B
:1015B000EF93FF93E0914F07F0915007309709F0B8
:1015C0000995FF91EF91BF91AF919F918F917F917D
:1015D0006F915F914F913F912F910F900FBE0F90A0
:1015E0001F9018951F920F920FB60F9211242F93F0
:1015F0003F934F935F936F937F938F939F93AF939B
:10160000BF93EF93FF93E0914B07F0914C07309716
:1016100009F00995FF91EF91BF91AF919F918F9143
:101620007F916F915F914F913F912F910F900FBEDE
:101630000F901F9018951F920F920FB60F921124C2
:101640002F933F934F935F936F937F938F939F93CA
:10165000AF93BF93EF93FF93E0914D07F0914E0747
:10166000309709F00995FF91EF91BF91AF919F914C
:101670008F917F916F915F914F913F912F910F903B
:101680000FBE0F901F90189581B1887F089581B18A
:101690008C7F81B981B1836081B980E064E070E0C2
:1016A00008C09B01229FB001239F700D700D112473
:1016B0008F5F8330B0F3660F771F80E490E00E9465
:1016C000840F60B985E082B986B7806486BF86B72B
:1016D000806886BF86B7846086BF81E0089584EA0B
:1016E00086BF06B607FEFDCF0E94440B883011F47A
:1016F00081E0089580E0089584EA86BF06B607FE7B
:10170000FDCF0E94440B803111F080E0089581E00C
:10171000089584E986BF81E008956230F0F490E096
:10172000880F991F862B83B984E886BF06B607FE0B
:10173000FDCF613041F40E94440B803481F00E945F
:10174000890B80E0089561110CC00E94440B883120
:1017500051F00E94890B80E0089580E0089581E0B7
:10176000089581E0089581E0089506B607FEFDCF53
:1017700083B984E886BF06B607FEFDCF0E94440BFE
:10178000883231F0883B31F0883C31F481E00895B3
:1017900081E0089581E0089580E008950F931F93FC
:1017A000CF93009739F106B607FEFDCF662319F0F7
:1017B000613021F021C024EC26BF02C024E826BFFE
:1017C00006B607FEFDCFC62F8C010E94440BCC232A
:1017D00019F0C13031F009C0803539F0803871F42A
:1017E00004C0883511F0883859F483B1F80180833A
:1017F00081E007C080E005C080E003C080E001C058
:1018000080E0CF911F910F9108951F920F920FB614
:101810000F9211242F933F934F935F936F937F9376
:101820008F939F93AF93BF93EF93FF93E091440700
:10183000F0914507309709F00995FF91EF91BF911D
:10184000AF919F918F917F916F915F914F913F9158
:101850002F910F900FBE0F901F90189540E061E000
:101860008CE00E94450940E061E08DE00E9445095E
:1018700040E060E08EE00E94450940E061E08FE0DA
:101880000E94450985E58DB908950E942E0C0895A2
:10189000CF93DF93EC0160E08CE00E9483098881A4
:1018A0008FB9779BFECF8FB1888361E08CE00E9477
:1018B0008309DF91CF910895EF92FF920F931F93C9
:1018C000CF93DF937C01D62FC0E00BC087010C0FB4
:1018D000111DC8010E94480CF8018081882319F06D
:1018E000CF5FCD1798F3DF91CF911F910F91FF90AC
:1018F000EF90089510BC83E389B988E18AB986E83E
:1019000080BD80B58F7780BD81E080934A070895C0
:10191000982F80914A07882341F081E080934A07FD
:101920005D9BFECF9CB980914A070895FC01809190
:101930004A07882359F081E080934A075F9BFECFD6
:101940002CB130E03183208380914A070895EF92D3
:10195000FF920F931F93CF937C0180914A078823B6
:10196000B1F081E080934A07C0E00DC087010C0F01
:10197000111DF801808190E00E94880CF80190818F
:10198000992319F0CF5FCF3F89F780914A07CF9114
:101990001F910F91FF90EF900895EF92FF920F9398
:1019A0001F93CF93DF937C0180914A078823D1F066
:1019B000D62F81E080934A07C0E010C087010C0F4A
:1019C000111DC8010E94960CF80190819D3011F004
:1019D0009A3019F4F801108203C0CF5FCD1770F36D
:1019E00080914A07DF91CF911F910F91FF90EF9067
:1019F00008951F920F920FB60F9211242F933F93C9
:101A00004F935F936F937F938F939F93AF93BF9306
:101A1000EF93FF93E0914807F0914907309709F061
:101A20000995FF91EF91BF91AF919F918F917F9118
:101A30006F915F914F913F912F910F900FBE0F903B
:101A40001F9018951F920F920FB60F9211242F938B
:101A50003F934F935F936F937F938F939F93AF9336
:101A6000BF93EF93FF93E0914607F09147073097BC
:101A700009F00995FF91EF91BF91AF919F918F91DF
:101A80007F916F915F914F913F912F910F900FBE7A
:101A90000F901F9018955058BB27AA270E94630DDE
:101AA0000C94B40E0E94A60E38F00E94AD0E20F0E9
:101AB00039F49F3F19F426F40C94A30E0EF4E0952C
:101AC000E7FB0C949D0EE92F0E94C50E58F3BA1740
:101AD000620773078407950720F079F4A6F50C9444
:101AE000E70E0EF4E0950B2EBA2FA02D0B01B901D5
:101AF00090010C01CA01A0011124FF27591B99F084
:101B0000593F50F4503E68F11A16F040A22F232F8F
:101B1000342F4427585FF3CF469537952795A795DF
:101B2000F0405395C9F77EF41F16BA0B620B730B86
:101B3000840BBAF09150A1F0FF0FBB1F661F771FF7
:101B4000881FC2F70EC0BA0F621F731F841F48F4AC
:101B5000879577956795B795F7959E3F08F0B0CF35
:101B60009395880F08F09927EE0F9795879508951C
:101B70000E94CC0D0C94B40E0E94AD0E58F00E9441
:101B8000A60E40F029F45F3F29F00C949D0E5111F0
:101B90000C94E80E0C94A30E0E94C50E68F39923D2
:101BA000B1F3552391F3951B550BBB27AA27621759
:101BB0007307840738F09F5F5F4F220F331F441F66
:101BC000AA1FA9F335D00E2E3AF0E0E832D091509A
:101BD0005040E695001CCAF72BD0FE2F29D0660F87
:101BE000771F881FBB1F261737074807AB07B0E8CA
:101BF00009F0BB0B802DBF01FF2793585F4F3AF0D0
:101C00009E3F510578F00C949D0E0C94E80E5F3FBA
:101C1000E4F3983ED4F3869577956795B795F79555
:101C20009F5FC9F7880F911D9695879597F908953D
:101C3000E1E0660F771F881FBB1F621773078407D9
:101C4000BA0720F0621B730B840BBA0BEE1F88F7E8
:101C5000E09508950E94310E6894B1110C94E80E3D
:101C600008950E94CD0E88F09F5798F0B92F9927BC
:101C7000B751B0F0E1F0660F771F881F991F1AF077
:101C8000BA95C9F714C0B13091F00E94E70EB1E0E7
:101C900008950C94E70E672F782F8827B85F39F0E6
:101CA000B93FCCF3869577956795B395D9F73EF410
:101CB00090958095709561957F4F8F4F9F4F0895B8
:101CC000E89409C097FB3EF49095809570956195D6
:101CD0007F4F8F4F9F4F9923A9F0F92F96E9BB278C
:101CE0009395F695879577956795B795F111F8CF08
:101CF000FAF4BB0F11F460FF1BC06F5F7F4F8F4F73
:101D00009F4F16C0882311F096E911C0772321F068
:101D10009EE8872F762F05C0662371F096E8862F00
:101D200070E060E02AF09A95660F771F881FDAF757
:101D3000880F9695879597F9089597F99F6780E89A
:101D400070E060E008959FEF80EC089500240A940D
:101D50001616170618060906089500240A94121686
:101D60001306140605060895092E0394000C11F4B9
:101D7000882352F0BB0F40F4BF2B11F460FF04C066
:101D80006F5F7F4F8F4F9F4F089557FD9058440FBF
:101D9000551F59F05F3F71F04795880F97FB991FCA
:101DA00061F09F3F79F08795089512161306140687
:101DB000551FF2CF4695F1DF08C016161706180614
:101DC000991FF1CF86957105610508940895E894EF
:101DD000BB2766277727CB0197F908950E94600FEC
:101DE00008F48FEF08950E94060F0C94B40E0E9421
:101DF000A60E38F00E94AD0E20F0952311F00C9441
:101E00009D0E0C94A30E11240C94E80E0E94C50E96
:101E100070F3959FC1F3950F50E0551F629FF0013D
:101E2000729FBB27F00DB11D639FAA27F00DB11D56
:101E3000AA1F649F6627B00DA11D661F829F2227DF
:101E4000B00DA11D621F739FB00DA11D621F839F66
:101E5000A00D611D221F749F3327A00D611D231F3C
:101E6000849F600D211D822F762F6A2F11249F578A
:101E700050409AF0F1F088234AF0EE0FFF1FBB1F8D
:101E8000661F771F881F91505040A9F79E3F51054C
:101E900080F00C949D0E0C94E80E5F3FE4F3983EA6
:101EA000D4F3869577956795B795F795E7959F5FF6
:101EB000C1F7FE2B880F911D9695879597F9089588
:101EC000990F0008550FAA0BE0E8FEEF161617064B
:101ED000E807F907C0F012161306E407F50798F0B3
:101EE000621B730B840B950B39F40A2661F0232BCC
:101EF000242B252B21F408950A2609F4A140A69548
:101F00008FEF811D811D0895AA1BBB1B51E107C0E6
:101F1000AA1FBB1FA617B70710F0A61BB70B881F79
:101F2000991F5A95A9F780959095BC01CD01089508
:101F300097FB072E16F4009407D077FD09D00E9476
:101F4000840F07FC05D03EF4909581959F4F08952E
:101F5000709561957F4F0895052E97FB1EF40094B0
:101F60000E94C30F57FD07D00E94D10F07FC03D07A
:101F70004EF40C94C30F50954095309521953F4FEA
:101F80004F4F5F4F089590958095709561957F4F65
:101F90008F4F9F4F0895EE0FFF1F0590F491E02D96
:101FA0000994A1E21A2EAA1BBB1BFD010DC0AA1F9A
:101FB000BB1FEE1FFF1FA217B307E407F50720F0B2
:101FC000A21BB30BE40BF50B661F771F881F991F2D
:101FD0001A9469F760957095809590959B01AC0176
:101FE000BD01CF010895662777270C941C10BB27ED
:101FF0004A3031F4992322F4BDE2909581959F4FA8
:102000000C940310BB27FB015527AA27880F991FA3
:10201000AA1FA41710F0A41B83955051B9F7A05D17
:10202000AA3308F0A95DA193009779F7B111B19394
:102030001192CB010C948B11A0E0B0E0E2E2F0E150
:102040000C94B411EC016B016115710519F0FB01E1
:10205000918380837E01FFEFEF1AFF0A0881802FB2
:1020600090E00E946A11892B11F0E701F3CF0D3245
:1020700039F47E0182E0E80EF11C098111E008C00C
:102080000B3229F47E0192E0E90EF11C098110E087
:10209000E701219743E050E066E770E0CE010E943F
:1020A0007311892BC1F4239645E050E061E770E09D
:1020B000CE010E947311892B09F42596C114D10415
:1020C00019F0F601D183C0831111F6C060E070E011
:1020D00080E89FE7FAC043E050E06EE670E0CE0192
:1020E0000E947311892B59F4C114D10409F4E9C079
:1020F000F2E0EF0EF11CF601F182E082E2C020E096
:1021000030E0A901C0E0D0E0F70180EDA82EA00EDC
:1021100089E08A1530F1912F9260B92E812F887055
:1021200012FF04C0811124C0219622C08111219781
:10213000A5E0B0E00E94A311DC01CB01880F991F3C
:10214000AA1FBB1F9C01AD012A0D311D411D511D50
:10215000283989E93807480789E1580748F01660A7
:1021600006C09EEFA9120AC013FD40C01860B12E30
:102170008FEFE81AF80A00811B2DC6CF802F8F7DC4
:102180008534A1F580818D3211F4106106C08B3247
:1021900021F0319661E070E004C08181329662E006
:1021A00070E080538A3018F0E61BF70B1FC060E028
:1021B00070E060389CE079075CF4DB01AA0FBB1F7C
:1021C000AA0FBB1F6A0F7B1F660F771F680F711D59
:1021D0003196DF0111978C9180538A3050F314FFB0
:1021E00003C0719561957109C60FD71F11FF08C013
:1021F000C114D10429F0CF010197F60191838083A6
:10220000CA01B9010E94600E212F2370233019F0FA
:102210004B015C0106C04B015C01B7FAB094B7F802
:10222000B09420E030E0A901C501B4010E949B11E7
:10223000882309F43EC0D7FF06C0D195C195D109C6
:102240000DE810E002C005EA10E06801F8E1CF1ADD
:10225000D10890E2E92EF12CCE15DF0574F0F801DB
:102260002591359145915491C501B4010E94F30E19
:102270004B015C01CE19DF09EFCF04501109F59431
:10228000E7940C151D0541F78A2D880F8B2D881FAB
:102290008F3F49F020E030E0A901C501B4010E9460
:1022A0009B11811106C082E290E0909352078093C7
:1022B0005107C501B40109C060E070E080E89FEFFC
:1022C00004C060E070E080EC9FE7CDB7DEB7ECE0E3
:1022D0000C94D01191110C94A011803219F08950F6
:1022E0008550C8F70895FB01DC014150504088F04B
:1022F0008D9181341CF08B350CF4805E65916134D6
:102300001CF06B350CF4605E861B611171F3990B48
:102310000895881BFCCFDC01FC01672F71917723A6
:10232000E1F7329704C07C916D9370836291AE1790
:10233000BF07C8F308950E94600F08F481E0089574
:102340009927882708950E94E511A59F900DB49FB5
:10235000900DA49F800D911D112408952F923F92FE
:102360004F925F926F927F928F929F92AF92BF92A5
:10237000CF92DF92EF92FF920F931F93CF93DF9351
:10238000CDB7DEB7CA1BDB0B0FB6F894DEBF0FBEAE
:10239000CDBF09942A88398848885F846E847D84FB
:1023A0008C849B84AA84B984C884DF80EE80FD80FD
:1023B0000C811B81AA81B981CE0FD11D0FB6F89473
:1023C000DEBF0FBECDBFED010895A29FB001B39F48
:1023D000C001A39F700D811D1124911DB29F700D2E
:0C23E000811D1124911D0895F894FFCF79
:1023EC000243617264206E6F7420616C6C6F776550
:1023FC006400696E2041444D494E206D6F64650048
:10240C0020202041444D494E204D4F444500456EFF
:10241C007465722050494E3A00456E7465722061A5
:10242C006D6F756E743A00204D6178696D756D2015
:10243C00416D6F756E7400202020204578636565B2
:10244C00646564002020496E73756666696369650E
:10245C006E740020202020202046756E6400202001
:10246C005472616E73616374696F6E00202020205A
:10247C00417070726F7665640020496E636F727282
:10248C006563742050494E00436172642069732067
:10249C00656A6563746564002020496E76616C69B9
:1024AC00642043617264004361726420656A6563F1
:1024BC0074656400506C732063686F6F7365206D76
:1024CC006F64650020202057656C636F6D65207408
:1024DC006F0020202041544D2053797374656D009A
:1024EC0061646D696E00456E746572207468652058
:1024FC0075736564206D6F6465202841444D494EA9
:10250C00202D2055534552293A0D0041444D494E3A
:10251C0000456E7465722050617373776F72643A04
:10252C000D00506C656173652073656C6563742078
:10253C006F6E65206F662074686520666F6C6C6FBB
:10254C0077696E673A0D00312D20437573746F6D8A
:10255C00657220446174610D00322D204D617869E3
:10256C006D756D20416D6F756E740D00332D2045AA
:10257C007869740D00506C7320656E746572206EF2
:10258C00756D626572206F662063617264733A20A8
:10259C0000506C6561736520656E746572205041E6
:1025AC004E3A0D00506C6561736520656E746572F2
:1025BC002062616C616E63653A0D00506C656173ED
:1025CC006520656E746572206D6178696D756D201E
:1025DC00616D6F756E743A0D00496E76616C69644D
:1025EC002050617373776F72640D00555345520020
:1025FC00312D20496E7365727420612043617264C1
:10260C0000322D20446973706C61792054656D70B3
:10261C00002020506C6561736520456E74657200F6
:10262C00202020596F75722043617264210043751C
:10263C007272656E742054656D703A200053797314
:10264C0074656D20626C6F636B6564210054656DFD
:10265C00702069732061626F76652035300050728E
:10266C0065737320616E79206B657900496E7661B4
:10267C006C6964206D6F646520697320696E736585
:10268C00727465640D0001020308040506071C1D25
:0E269C001E1F030405061C1D1E1F3B38353291
:00000001FF
