S0130000554152545F4472697665722E737265630A
S11300000C942A000C9447000C9447000C9447006D
S11300100C9447000C9447000C9447000C94470040
S11300200C9447000C9447000C9447000C94470030
S11300300C9447000C949C000C9447000C94C5004D
S11300400C9447000C9447000C9447000C94470010
S11300500C94470011241FBECFE5D8E0DEBFCDBF0E
S113006010E0A0E6B0E0E0EEF1E002C005900D92F1
S1130070A036B107D9F720E0A0E6B0E001C01D9298
S1130080A436B207E1F70E9449000C94EE000C94E8
S11300900000CF93DF9300D0CDB7DEB781E490E0CA
S11300A09A8389830E945D0089819A810E949700C6
S11300B0CE0101960E948700F7CFCF93DF931F9262
S11300C0CDB7DEB7198210BC83E389B98AB18860E1
S11300D08AB98AB180618AB9898182608983898178
S11300E0846089838AB18B7F8AB98981806289839C
S11300F080B5806880BD998180B5892B80BD80B52D
S11301008F7780BD81E00F90DF91CF9108950097A4
S113011061F0FC01118210825F9BFECF2CB130E0B4
S1130120FC013183208381E0089580E008955D9B84
S1130130FECF8CB981E008951F920F920FB60F92F3
S113014011242F933F934F935F936F937F938F93D8
S11301509F93AF93BF93EF93FF93E0916200F0916D
S11301606300309709F00995FF91EF91BF91AF912A
S11301709F918F917F916F915F914F913F912F91BB
S11301800F900FBE0F901F9018951F920F920FB6ED
S11301900F9211242F933F934F935F936F937F9309
S11301A08F939F93AF93BF93EF93FF93E09160007E
S11301B0F0916100309709F00995FF91EF91BF919B
S11301C0AF919F918F917F916F915F914F913F91EB
S11301D02F910F900FBE0F901F901895F894FFCF9A
S9030000FC
