:100000000C9432000C944F000C944F000C944F0051
:100010000C944F000C944F000C944F000C944F0024
:100020000C944F000C944F000C944F000C944F0014
:100030000C944F000C944F000C944F000C944F0004
:100040000C944F000C944F000C944F000C944F00F4
:100050000C944F0094049E04A804B204BC04C6048B
:10006000D004DA0411241FBECFE5D8E0DEBFCDBF37
:1000700010E0A0E6B0E0E2EEFAE002C005900D92DA
:10008000A439B107D9F720E0A4E9B0E001C01D927E
:10009000A739B207E1F70E94E9010C946F050C94AF
:1000A00000000E94EE010E94E4040E94F200089504
:1000B000CF93DF9300D000D0CDB7DEB7BE016F5F26
:1000C0007F4F80E00E94F500BE016E5F7F4F81E0B0
:1000D0000E94F500BE016D5F7F4F82E00E94F50037
:1000E000BE016C5F7F4F83E00E94F5008981823002
:1000F00079F46091960080E00E94920160919600F0
:1001000081E00E949201809194000E94C40163C02A
:100110008A81823061F460E080E00E94920161E0B7
:1001200081E00E9492018EE10E94C40154C08B8143
:10013000823061F460E081E00E94920161E080E041
:100140000E9492018EE10E94C40145C08C81811100
:1001500040C00E94D20181E00E94D20180916000E3
:100160008230E1F028F4882341F0813071F033C00F
:100170008330E9F0843021F12EC01092940081E0A8
:10018000809360001092960026C08EE180939400C8
:1001900082E080936000109296001DC08CE38093F3
:1001A000940083E0809360001092960014C08AE56A
:1001B0008093940084E080936000109296000BC0BE
:1001C0008EE1809394001092600081E0809396000D
:1001D00002C00E942D050F900F900F900F90DF919D
:1001E000CF9108950E94EE0108957F928F929F9281
:1001F000AF92BF92CF92DF92EF92FF920F931F9335
:10020000CF93DF931F92CDB7DEB76115710509F467
:1002100079C06B01782EBE016F5F7F4F0E9425046D
:10022000A12CB12CE12CF12C00E010E0812C912CC0
:1002300019C02A2D3B2D4E2D5F2D602F712F882D3B
:10024000992DA1E00E944F05A22EB32EE42EF52E8B
:10025000062F172F882E992EBE016F5F7F4F872D97
:100260000E9425048981811112C02A2D3B2D4E2D1B
:100270005F2D602F712F882D992D2F30374241052A
:100280005105610571058105910599F290F22A2DBC
:100290003B2D4E2D5F2D602F712F882D992D2031F4
:1002A000374241055105610571058105910539F414
:1002B00082E0F601808381E08093950021C02A2DA1
:1002C0003B2D4E2D5F2D602F712F882D992DAFEF77
:1002D0000E944F052E3037424105510561057105D9
:1002E0008105910509F038F480919500811103C0D2
:1002F000F601108205C081E0F6018083109295001E
:1003000081E001C080E00F90DF91CF911F910F91AC
:10031000FF90EF90DF90CF90BF90AF909F908F9025
:100320007F900895662319F06130B9F02BC08111D8
:1003300009C061E087E00E94760360E088E00E94E7
:10034000760320C08130F1F461E08AE00E947603F8
:1003500060E08BE00E94760315C0811109C060E067
:1003600087E00E94760361E088E00E9476030AC07D
:10037000813041F460E08AE00E94760361E08BE026
:100380000E94760381E00895CF93853640F4C82F0C
:100390000E94E4048C2F0E94100581E001C080E0DF
:1003A000CF910895811109C060E087E00E94760333
:1003B00060E088E00E9476030AC0813041F460E08A
:1003C0008AE00E94760360E08BE00E94760381E081
:1003D00008950E9451000E945800FDCF20E081C185
:1003E000822F90E0FC01EE0FFF1FE80FF91FEF597D
:1003F000FF4F3181311158C0FC01EE0FFF1FE80F94
:10040000F91FEF59FF4F4081483070F43AB361E073
:1004100070E0FB0102C0EE0FFF1F4A95E2F7AF014B
:10042000409543234ABB95C038EF340F383088F4E9
:1004300037B350E04850510961E070E0FB0102C061
:10044000EE0FFF1F4A95E2F7AF014095432347BBEC
:1004500080C030EF340F383088F434B350E040516E
:10046000510961E070E0FB0102C0EE0FFF1F4A95E9
:10047000E2F7AF014095432344BB6BC038EE340F25
:10048000383008F066C031B350E04851510961E09E
:1004900070E0FB0102C0EE0FFF1F4A95E2F7AF01CB
:1004A0004095432341BB55C0313009F052C0FC0197
:1004B000EE0FFF1FE80FF91FEF59FF4F4081483043
:1004C00068F43AB361E070E0FB0102C0EE0FFF1F79
:1004D0004A95E2F7AF01432B4ABB3BC038EF340FDC
:1004E000383080F437B350E04850510961E070E093
:1004F000FB0102C0EE0FFF1F4A95E2F7AF01432B4D
:1005000047BB27C030EF340F383080F434B350E0AD
:100510004051510961E070E0FB0102C0EE0FFF1F86
:100520004A95E2F7AF01432B44BB13C038EE340FBA
:10053000383078F431B350E04851510961E070E04F
:10054000FB0102C0EE0FFF1F4A95E2F7AF01432BFC
:1005500041BBFC01EE0FFF1FE80FF91FEF59FF4FE2
:100560003181311160C0FC01EE0FFF1FE80FF91F50
:10057000EF59FF4F4281411156C0FC01EE0FFF1FA2
:100580008E0F9F1FFC01EF59FF4F8081883070F460
:100590003BB341E050E0BA0102C0660F771F8A9575
:1005A000E2F7CB01809583238BBB9AC098EF980F1D
:1005B000983080F438B390E0089741E050E0FA01B9
:1005C00002C0EE0FFF1F8A95E2F7CF0180958323CB
:1005D00088BB86C090EF980F983080F435B390E0D8
:1005E000409741E050E0BA0102C0660F771F8A953C
:1005F000E2F7CB018095832385BB72C098EE980FFC
:10060000983008F06DC032B390E0489741E050E078
:10061000FA0102C0EE0FFF1F8A95E2F7CF01809525
:10062000832382BB5DC031115BC0FC01EE0FFF1F55
:10063000E80FF91FEF59FF4F3281313009F050C0F8
:10064000FC01EE0FFF1F8E0F9F1FFC01EF59FF4FA4
:100650008081883068F43BB341E050E0BA0102C0C9
:10066000660F771F8A95E2F7CB01832B8BBB38C0CF
:1006700098EF980F983078F438B390E0089741E0FD
:1006800050E0FA0102C0EE0FFF1F8A95E2F7CF019A
:10069000832B88BB25C090EF980F983078F435B342
:1006A00090E0409741E050E0BA0102C0660F771F2A
:1006B0008A95E2F7CB01832B85BB12C098EE980F89
:1006C000983070F432B390E0489741E050E0FA017E
:1006D00002C0EE0FFF1F8A95E2F7CF01832B82BB8A
:1006E0002F5F2F3008F47CCE81E00895611157C050
:1006F00090E0FC01EE0FFF1F8E0F9F1FFC01EF59D2
:10070000FF4F8081883070F44BB321E030E0B901B5
:1007100002C0660F771F8A95E2F7CB01809584238C
:100720008BBB91C098EF980F983080F448B390E05D
:10073000089721E030E0B90102C0660F771F8A9563
:10074000E2F7CB018095842388BB7DC090EF980FA2
:10075000983080F445B390E0409721E030E0B90153
:1007600002C0660F771F8A95E2F7CB01809584233C
:1007700085BB69C098EE980F983008F064C042B30A
:1007800090E0489721E030E0B90102C0660F771F82
:100790008A95E2F7CB018095842382BB54C06130F7
:1007A00009F051C090E0FC01EE0FFF1F8E0F9F1F5C
:1007B000FC01EF59FF4F8081883068F44BB321E092
:1007C00030E0B90102C0660F771F8A95E2F7CB01CE
:1007D000842B8BBB38C098EF980F983078F448B3CF
:1007E00090E0089721E030E0B90102C0660F771F62
:1007F0008A95E2F7CB01842B88BB25C090EF980F38
:10080000983078F445B390E0409721E030E0B901AA
:1008100002C0660F771F8A95E2F7CB01842B85BB58
:1008200012C098EE980F983070F442B390E0489759
:1008300021E030E0B90102C0660F771F8A95E2F728
:10084000CB01842B82BB81E008956115710509F409
:100850005AC090E0FC01EE0FFF1F8E0F9F1FFC019E
:10086000EF59FF4F8081883078F449B321E030E0C0
:10087000F90102C0EE0FFF1F8A95E2F7CF01842332
:10088000FB01808381E0089598EF980F983088F4F9
:1008900046B390E0089721E030E0F90102C0EE0F86
:1008A000FF1F8A95E2F7CF018423FB01808381E05B
:1008B000089590EF980F983088F443B390E04097F4
:1008C00021E030E0F90102C0EE0FFF1F8A95E2F748
:1008D000CF018423FB01808381E0089598EE980F77
:1008E000983098F440B390E0489721E030E0F90167
:1008F00002C0EE0FFF1F8A95E2F7CF018423FB01B0
:10090000808381E0089580E0089581E00895E0917A
:1009100090008E2F90E08830910508F054C0FC01C3
:10092000E65DFF4F0C94490583B78E7F83BF83B785
:100930008D7F83BF83B78B7F83BF089583B781602B
:1009400083BF83B78D7F83BF83B78B7F83BF0895BA
:1009500083B78E7F83BF83B7826083BF83B78B7F6C
:1009600083BF089583B7816083BF83B7826083BFED
:1009700083B78B7F83BF089583B78E7F83BF83B791
:100980008D7F83BF83B7846083BF089583B7816001
:1009900083BF83B78D7F83BF83B7846083BF089590
:1009A00083B78E7F83BF83B7826083BF83B7846042
:1009B00083BF089583B7816083BF83B7826083BF9D
:1009C00083B7846083BF089580918E00811126C013
:1009D00080918F00811107C083B7806483BF83B784
:1009E000886083BF08C0813031F483B7806483BFDF
:1009F00083B7877F83BF80919200811107C083B73F
:100A00008F7E83BF83B7806283BF08C0813031F49B
:100A100083B7806183BF83B7806283BF81E008951D
:100A200090919200992319F0913059F012C02FEF54
:100A3000829FC001112464E670E00E9435056CBFFE
:100A400008C0982F80E064E670E00E94350560954C
:100A50006CBF0E94870481E0089583B78F7E83BFB7
:100A600083B78F7D83BF81E0089597FB072E16F42F
:100A7000009407D077FD09D00E945B0507FC05D0E4
:100A80003EF4909581959F4F0895709561957F4FA5
:100A90000895EE0FFF1F0590F491E02D09940024B6
:100AA000A7FD00942A0F301D401D501D601D701DB4
:100AB000801D901D0895AA1BBB1B51E107C0AA1FF2
:100AC000BB1FA617B70710F0A61BB70B881F991FEF
:100AD0005A95A9F780959095BC01CD010895F89499
:020AE000FFCF46
:100AE20001010001020001030001040001110100E3
:100AF2001201001001000801000901000B01000CA5
:100B020001000D01000000000000000000000000D4
:040B120002000000DD
:00000001FF
