:100000000C942A000C9447000C9447000C94470071
:100010000C9447000C9447000C9447000C94470044
:100020000C9447000C9447000C9447000C94470034
:100030000C9447000C9480050C9447000C94A9057F
:100040000C9447000C9447000C9447000C94470014
:100050000C94470011241FBECFE5D8E0DEBFCDBF12
:1000600010E0A0E6B0E0EEEFFBE002C005900D92DC
:10007000A436B107D9F720E0A4E6B0E001C01D9294
:10008000AC37B207E1F70E9469020C94FD050C94AD
:10009000000080917600811103C081E0809376009A
:1000A00080E790E00E94600581E080936F000895F2
:1000B000009739F1FC012081213079F018F02230CD
:1000C000E1F021C00E943A050E947105789489E40C
:1000D00090E00E94760581E019C08181813049F06D
:1000E00020F0823091F481E011C00E94300581E05F
:1000F0000DC00E94350581E009C00E94290581E0FC
:1001000005C080E003C080E001C080E091E09093F2
:100110006E000895009769F020916E00222359F037
:10012000E2E7F0E09183808314821382128281E0FF
:10013000089580E0089580E008958F929F92AF9295
:10014000BF92CF92DF92EF92FF920F931F93CF93C4
:10015000DF9380916E00811108C0E0917200F091F0
:1001600073008089882309F4A0C180916F008130D9
:1001700009F09DC180917600823021F128F4882316
:1001800059F0813059F08DC1843009F4F8C008F479
:1001900050C0853009F085C181E084C1E0917200D2
:1001A000F09173008091700080538083811105C0AD
:1001B00082E08093760081E075C186E080937600CE
:1001C00080E070C18091740090917500009779F47F
:1001D00020917000205330E030936500209364003C
:1001E0000196909375008093740080E05BC180E07D
:1001F00090E090916400209170002053822B9093A6
:10020000650080936400E2E7F0E0138212820190BF
:10021000F081E02D218132812817390728F083E011
:100220008093760081E03EC186E08093760080E096
:1002300039C161E080E00E942704809174009091B0
:1002400075002091640030916500215031098217BA
:10025000930708F043C0A2E7B0E0ED91FC9111973D
:100260000380F481E02DE80FF91F209170002083B6
:10027000019613969C938E931297809170009091A3
:100280007100C097282F392F40E050E060E070E007
:1002900080E090E0A0906600B0906700C090680099
:1002A000D0906900E0906A00F0906B0000916C00C3
:1002B00010916D000E94EB0520936600309367005B
:1002C000409368005093690060936A0070936B00DC
:1002D00080936C0090936D0081E0E4C0C2E7D0E0B1
:1002E000E881F98123813481F901E80FF91F209118
:1002F000700020831B821A828090700090907100A1
:1003000080E3881A9108282D392D40E050E060E004
:1003100070E080E090E0A0906600B0906700C09030
:100320006800D0906900E0906A00F0906B00009146
:100330006C0010916D000E94EB05209366003093D5
:100340006700409368005093690060936A0070935F
:100350006B0080936C0090936D0084E08C83822FFF
:10036000932F0E945205E881F98115821682178227
:100370001086118612861386148681E093C0E09061
:100380007400F0907500A7E0EA16F104B8F50F2E9E
:10039000F2E7CF2EF0E0DF2EF02DD601ED91FC91AB
:1003A0002581368147815085618572858385948555
:1003B00008E00E94D205C0917000D0917100DD2745
:1003C000E097AD2FAA0FAA0B2C2B3D2B4A2B5A2BB3
:1003D0006A2B7A2B8A2B9A2B258336834783508767
:1003E0006187728783879487EFEFEE1AFE0AD60142
:1003F0001396FC92EE92129780E054C00F2EF2E713
:10040000EF2EF0E0FF2EF02DD701ED91FC9125812C
:10041000368147815085618572858385948508E0A2
:100420000E94D205C0917000D0917100DD27E09745
:10043000AD2FAA0FAA0B2C2B3D2B4A2B5A2B6A2B24
:100440007A2B8A2B9A2B25833683478350876187A3
:10045000728783879487D70113961C921E921297F6
:10046000A0906600B0906700C0906800D0906900CE
:10047000E0906A00F0906B0000916C0010916D00AC
:100480000E94F40549F40584F685E02D099585E080
:100490008093760081E006C086E08093760080E05D
:1004A00001C080E010926F0003C080E001C080E0D6
:1004B000DF91CF911F910F91FF90EF90DF90CF9040
:1004C000BF90AF909F908F90089580E00E94D604D7
:1004D0000895CF93DF93CDB7DEB76D970FB6F8943D
:1004E000DEBF0FBECDBF0E949F02FE0131968AE0A3
:1004F000DF011D928A95E9F71B8681E08C871D86B6
:100500002AE030E03F872E87F98BE88B1A8A1B8A16
:100510001C8A1D8A1E8A1F8A188E198E25E632E0D3
:100520003B8F2A8F1C8E8D8FCE010B960E94580018
:10053000CE010D960E948A000E949D00FDCF20E012
:1005400081C1822F90E0FC01EE0FFF1FE80FF91F21
:10055000E05AFF4F3181311158C0FC01EE0FFF1FEF
:10056000E80FF91FE05AFF4F4081483070F43AB36A
:1005700061E070E0FB0102C0EE0FFF1F4A95E2F759
:10058000AF01409543234ABB95C038EF340F383054
:1005900088F437B350E04850510961E070E0FB0146
:1005A00002C0EE0FFF1F4A95E2F7AF0140954323CB
:1005B00047BB80C030EF340F383088F434B350E09C
:1005C0004051510961E070E0FB0102C0EE0FFF1FD6
:1005D0004A95E2F7AF014095432344BB6BC038EE28
:1005E000340F383008F066C031B350E0485151093B
:1005F00061E070E0FB0102C0EE0FFF1F4A95E2F7D9
:10060000AF014095432341BB55C0313009F052C082
:10061000FC01EE0FFF1FE80FF91FE05AFF4F40816A
:10062000483068F43AB361E070E0FB0102C0EE0FBD
:10063000FF1F4A95E2F7AF01432B4ABB3BC038EF9F
:10064000340F383080F437B350E04850510961E03E
:1006500070E0FB0102C0EE0FFF1F4A95E2F7AF0109
:10066000432B47BB27C030EF340F383080F434B30E
:1006700050E04051510961E070E0FB0102C0EE0F13
:10068000FF1F4A95E2F7AF01432B44BB13C038EE7E
:10069000340F383078F431B350E04851510961E0FB
:1006A00070E0FB0102C0EE0FFF1F4A95E2F7AF01B9
:1006B000432B41BBFC01EE0FFF1FE80FF91FE05A6F
:1006C000FF4F3181311160C0FC01EE0FFF1FE80FB9
:1006D000F91FE05AFF4F4281411156C0FC01EE0F55
:1006E000FF1F8E0F9F1FFC01E05AFF4F8081883053
:1006F00070F43BB341E050E0BA0102C0660F771FCF
:100700008A95E2F7CB01809583238BBB9AC098EF43
:10071000980F983080F438B390E0089741E050E0AB
:10072000FA0102C0EE0FFF1F8A95E2F7CF01809514
:10073000832388BB86C090EF980F983080F435B340
:1007400090E0409741E050E0BA0102C0660F771F89
:100750008A95E2F7CB018095832385BB72C098EE22
:10076000980F983008F06DC032B390E0489741E0A0
:1007700050E0FA0102C0EE0FFF1F8A95E2F7CF01A9
:100780008095832382BB5DC031115BC0FC01EE0FFD
:10079000FF1FE80FF91FE05AFF4F3281313009F097
:1007A00050C0FC01EE0FFF1F8E0F9F1FFC01E05A8F
:1007B000FF4F8081883068F43BB341E050E0BA01DC
:1007C00002C0660F771F8A95E2F7CB01832B8BBBA4
:1007D00038C098EF980F983078F438B390E00897C5
:1007E00041E050E0FA0102C0EE0FFF1F8A95E2F7E8
:1007F000CF01832B88BB25C090EF980F983078F4F9
:1008000035B390E0409741E050E0BA0102C0660F76
:10081000771F8A95E2F7CB01832B85BB12C098EE38
:10082000980F983070F432B390E0489741E050E070
:10083000FA0102C0EE0FFF1F8A95E2F7CF01832B6A
:1008400082BB2F5F222309F47CCE81E008956111E1
:1008500057C090E0FC01EE0FFF1F8E0F9F1FFC01A1
:10086000E05AFF4F8081883070F44BB321E030E0D4
:10087000B90102C0660F771F8A95E2F7CB01809518
:1008800084238BBB91C098EF980F983080F448B3C5
:1008900090E0089721E030E0B90102C0660F771FB1
:1008A0008A95E2F7CB018095842388BB7DC090EFC9
:1008B000980F983080F445B390E0409721E030E005
:1008C000B90102C0660F771F8A95E2F7CB018095C8
:1008D000842385BB69C098EE980F983008F064C0F7
:1008E00042B390E0489721E030E0B90102C0660FC2
:1008F000771F8A95E2F7CB018095842382BB54C091
:10090000613009F051C090E0FC01EE0FFF1F8E0F27
:100910009F1FFC01E05AFF4F8081883068F44BB381
:1009200021E030E0B90102C0660F771F8A95E2F737
:10093000CB01842B8BBB38C098EF980F983078F49C
:1009400048B390E0089721E030E0B90102C0660F9B
:10095000771F8A95E2F7CB01842B88BB25C090EFE7
:10096000980F983078F445B390E0409721E030E05C
:10097000B90102C0660F771F8A95E2F7CB01842B7D
:1009800085BB12C098EE980F983070F442B390E097
:10099000489721E030E0B90102C0660F771F8A95C1
:1009A000E2F7CB01842B82BB81E0089590E0FC014B
:1009B000EE0FFF1F8E0F9F1FFC01E05AFF4F80813B
:1009C000883068F44BB321E030E0B90102C0660F13
:1009D000771F8A95E2F7CB0184278BBB38C098EF4D
:1009E000980F983078F448B390E0089721E030E011
:1009F000B90102C0660F771F8A95E2F7CB01842701
:100A000088BB25C090EF980F983078F445B390E0FC
:100A1000409721E030E0B90102C0660F771F8A9548
:100A2000E2F7CB01842785BB12C098EE980F98306F
:100A300070F442B390E0489721E030E0B90102C081
:100A4000660F771F8A95E2F7CB01842782BB81E08E
:100A5000089582E080B911B882B984E086BF089514
:100A60000E949F0280E58DB908950E949F0280E454
:100A70008DB9089510BC83E389B988E18AB980B53E
:100A8000846080BD80B5826080BD80B58F7D80BD73
:100A900080B58F7E80BD80B5877F80BD81E08093EB
:100AA0007B000895982F80917B00882341F081E09E
:100AB00080937B005D9BFECF9CB980917B00089565
:100AC000FC0180917B00882359F091E090937B009A
:100AD0005F9B04C08CB190E09183808380917B0008
:100AE00008958AB180688AB981E00895009731F04D
:100AF00090937A008093790081E0089580E00895D2
:100B00001F920F920FB60F9211242F933F934F9382
:100B10005F936F937F938F939F93AF93BF93EF9365
:100B2000FF93E0917900F0917A00309709F00995F0
:100B3000FF91EF91BF91AF919F918F917F916F91B5
:100B40005F914F913F912F910F900FBE0F901F908B
:100B500018951F920F920FB60F9211242F933F9367
:100B60004F935F936F937F938F939F93AF93BF93B5
:100B7000EF93FF93E0917700F0917800309709F0C0
:100B80000995FF91EF91BF91AF919F918F917F91C7
:100B90006F915F914F913F912F910F900FBE0F90EA
:100BA0001F9018950F93083090F0982F872F762F6D
:100BB000652F542F432F322F22270850F4CF220FB6
:100BC000331F441F551F661F771F881F991F0A95E3
:100BD000B2F70F9108952A0D3B1D4C1D5D1D6E1D32
:100BE0007F1D801F911F08952A153B054C055D054B
:0E0BF0006E057F05800791070895F894FFCFEA
:040BFE0000010000F2
:00000001FF
