S01500004175746F6E6F6D6F75734361722E73726563BF
S11300000C9431000C940B060C9432060C94590693
S11300100C944E000C949B0D0C944E000C944E00CA
S11300200C944E000C94CF0A0C944E000C949E0930
S11300300C944E000C944E000C944E000C944E0004
S11300400C944E000C944E000C944E000C944E00F4
S11300500C944E008802A702C602E50204032203A0
S1130060400311241FBECFE5D8E0DEBFCDBF10E0B2
S1130070A0E6B0E0E0E9F1E202C005900D92AC37F1
S1130080B107D9F720E0ACE7B0E001C01D92A03F72
S1130090B207E1F70E9419050C94C6100C940000F5
S11300A00E94D900813029F40E94C500813009F4EE
S11300B0789408950E946C0090917C00913011F026
S11300C0813049F481E080937C000E94CA000E9440
S11300D093000E94E800089580917D00813061F0D2
S11300E018F08230A1F01DC00E9472028130D1F458
S11300F080937D0080E0089560E080E00E94FA0330
S1130100813081F482E080937D0080E0089583E66D
S113011090E00E94DF03813029F493E090937D0006
S1130120089580E0089580917D00843079F08530D1
S113013001F1833041F560E081E00E94FA038130EF
S113014019F584E080937D0080E008958091E800B3
S11301509091E9000E9426048130B1F485E08093F7
S11301607D0080E00E94D50481E08093E70080E078
S113017008958DE690E00E94DF03813029F493E036
S113018090937D00089580E008950E94C304109226
S1130190E70008958091E700813049F488EE90E00B
S11301A00E94EA04813021F41092E700089580E06F
S11301B0089542E062E08EE00E940501813039F446
S11301C088E20E944101813011F40E94A90108953E
S11301D08091E8009091E9009C0122533109263076
S11301E0310520F483E00E944F0108958233910584
S11301F020F481E00E944F010895C89720F080E028
S11302000E944F01089580E008951F93CF93DF93D8
S1130210662321F0633011F0623061F5483060F5F7
S1130220D42FC62F182F40E061E08CE10E941E05F8
S113023040E061E08DE10E941E0540E061E08AE15A
S11302400E941E0540E061E08BE10E941E0540E033
S113025061E08EE10E941E0540E061E08FE10E94B2
S11302601E054D2F6C2F812F0E94800681E0809304
S11302707F0003C080E001C080E0DF91CF911F9137
S1130280089590917F00913031F4853630F4809355
S11302907E0081E0089580E0089580E008959091C3
S11302A07F00913009F051C0843008F050C08111B2
S11302B012C061E08AE10E945C0560E08BE10E946B
S11302C05C0561E08EE10E945C0560E08FE10E94C4
S11302D05C0581E00895813091F460E08AE10E9438
S11302E05C0561E08BE10E945C0560E08EE10E94A8
S11302F05C0561E08FE10E945C0581E00895823035
S113030091F460E08AE10E945C0561E08BE10E9467
S11303105C0561E08EE10E945C0560E08FE10E9473
S11303205C0581E0089561E08AE10E945C0560E07B
S11303308BE10E945C0560E08EE10E945C0561E057
S11303408FE10E945C0581E0089580E0089580E0DB
S1130350089580917F00813031F480917E000E9465
S1130360EF0681E0089580E00895EF92FF920F93E5
S11303701F932091610090918900291709F481C08D
S1130380923009F43FC028F4992359F09130C9F010
S113039078C0943009F464C0F0F1953009F469C070
S11303A070C0109284008BB38D7F8BBB8BB38B7F1B
S11303B08BBB80918900809361008F5F809389005B
S11303C060C09BB39F70807F892B8BBB8BB388608D
S11303D08BBB809189008093610082E080938600CA
S11303E00F2EF8E4EF2EF2E0FF2EF02D01E010E0E6
S11303F020E030E040E050E060E070E080E00E9407
S1130400860E3FC08BB3877F8BBB809189008F5F43
S11304108093890036C02BB330E1839FC00111243F
S1130420922F9F70892B8BBB8BB388608BBB809181
S113043089008093610082E0809386000F2EF8E4A7
S1130440EF2EF2E0FF2EF02D01E010E020E030E08E
S113045040E050E060E070E080E00E94860E11C051
S11304608BB3877F8BBB809189008F5F80938900DA
S113047008C081E0809384001092890085E0809315
S11304806100809184001F910F91FF90EF90089577
S113049080918600813031F480918A008F5F80934F
S11304A08A001DC080918600823031F480918900D9
S11304B08F5F8093890013C080918600833031F46C
S11304C0809188008F5F8093880009C080918600A6
S11304D0843029F4809187008F5F809387000E9485
S11304E0A2080895EF92FF920F931F9380916200E8
S11304F020918A00821709F4C8C0822F90E08730C7
S1130500910508F0C2C0FC01E65DFF4F0C946D0F2D
S11305108AB38E608ABB8AB3806F8ABB80918A005B
S11305208093620081E0809386000F2EF8E4EF2E22
S1130530F2E0FF2EF02D02E310E020E030E040E096
S113054050E060E070E080E00E94860E9EC082E091
S11305500E94B501882309F498C080918A00809391
S1130560620081E0809386000F2EF8E4EF2EF2E023
S1130570FF2EF02D07E210E020E030E040E050E0F4
S113058060E070E080E00E94050F7FC088E20E9476
S1130590B501882309F479C080918A0080936200B0
S11305A081E0809386000F2EF8E4EF2EF2E0FF2E18
S11305B0F02D07E210E020E030E040E050E060E0A1
S11305C070E080E00E94050F60C08CE00E94B501DD
S11305D0882309F45AC080918A008093620081E0E4
S11305E0809386000F2EF8E4EF2EF2E0FF2EF02D1C
S11305F007E210E020E030E040E050E060E070E02E
S113060080E00E94050F41C086E00E94B501882366
S1130610E1F180918A008093620081E080938600FA
S11306200F2EF8E4EF2EF2E0FF2EF02D07E210E09B
S113063020E030E040E050E060E070E080E00E94C4
S1130640050F23C081E00E94B5018823F1F0809159
S11306508A008093620081E0809386000F2EF8E484
S1130660EF2EF2E0FF2EF02D0AEF15E020E030E04F
S113067040E050E060E070E080E00E94050F05C0BB
S113068081E08093850020936200809185001F9112
S11306900F91FF90EF900895EF92FF920F931F93A5
S11306A02091600090918800291709F481C092304C
S11306B009F43FC028F4992359F09130C9F078C067
S11306C0943009F464C0F0F1953009F469C070C045
S11306D0109283008BB382608BBB8BB38B7F8BBBFD
S11306E080918800809360008F5F8093880060C051
S11306F09BB39F70807F892B8BBB8BB388608BBB34
S1130700809188008093600083E0809386000F2EA0
S1130710F8E4EF2EF2E0FF2EF02D01E010E020E0EF
S113072030E040E050E060E070E080E00E94860E3F
S11307303FC08BB3877F8BBB809188008F5F809392
S1130740880036C02BB330E1839FC0011124922F5F
S11307509F70892B8BBB8BB388608BBB8091880087
S11307608093600083E0809386000F2EF8E4EF2EE0
S1130770F2E0FF2EF02D01E010E020E030E040E058
S113078050E060E070E080E00E94860E11C08BB300
S1130790877F8BBB809188008F5F8093880008C01F
S11307A081E0809383001092880085E0809360004C
S11307B0809183001F910F91FF90EF90089500970F
S11307C0B9F020918200FC01E20FF11D80818823A1
S11307D059F00E944C03882361F0809182008F5F5E
S11307E08093820080E008951092820081E0089551
S11307F080E008959091810091111EC0813049F0EC
S113080028F0823051F0833061F00EC06093800094
S11308100BC0605C6093800007C0605F60938000E1
S113082003C0605B60938000809180008068809347
S113083080009F5F90938100809180000E94B501A9
S1130840882319F01092810081E00895CF93DF93FB
S1130850CDB7DEB760970FB6F894DEBF0FBECDBF3D
S11308604AE0BE016F5F7F4F0E949110CE01019656
S11308700E94DF0360960FB6F894DEBF0FBECDBFB3
S1130880DF91CF91089582E00E94840562E083E0C5
S11308900E949A0562E08EE00E94890A0E94C50ABD
S11308A00E94AD0A80E197E297BD86BD1DBC1CBCC9
S11308B081E0089562E00E949A0581E008950E9413
S11308C0C50A81E00895EF92FF920F931F93CF938F
S11308D0DF9300D000D0CDB7DEB7009701F18C01D3
S11308E0ECB4FDB419821A821B821C82CE010196DB
S11308F00E94B20A29813A814B815C81A1E1B7E26D
S11309000E94820FDC01CB018E0D9F1DA11DB11D24
S1130910F80180839183A283B38381E001C080E0E6
S11309200F900F900F900F90DF91CF911F910F9127
S1130930FF90EF900895009729F062E00E94F5057A
S113094081E0089580E0089580918B00882319F058
S1130950813061F0089581E990E00E94630482E0AF
S11309600E945A0481E080938B0008958DE890E002
S11309700E94630483E00E945A0410928B0081E079
S113098080938C00089540E061E080E10E941E05A0
S113099040E060E08AE00E941E050E94430484EA6D
S11309A094E00E949B0481E0089510928C0083E0FF
S11309B00E945A0461E080E10E945C058AE18A9504
S11309C0F1F700C060E080E10E945C050E945F04D2
S11309D081E008950F931F93CF93DF93EC018091EF
S11309E08C00882301F180918D0090918E00A0915C
S11309F08F00B0919000009191001091920020918D
S1130A00930030919400BC01CD01601B710B820BEB
S1130A10930B2AE330E040E050E00E944B0F39830F
S1130A20288381E001C080E0DF91CF911F910F9175
S1130A3008950E9450000E945A00FDCF8032B0F504
S1130A406230B0F54230B0F5E82FE695E695E695CC
S1130A50F0E0E858FF4FE081F0E0DF015E91982F6D
S1130A60977021E030E0092E02C0220F331F0A9450
S1130A70E2F7209570E0092E02C0660F771F0A94F2
S1130A80E2F7352F3223632B6C93308150E002C0A0
S1130A90440F551F9A95E2F72323422B4083E82FF6
S1130AA0F0E0EB56FF4F81E08083089580E00895E5
S1130AB080E0089580E00895E82FF0E0EB56FF4FC2
S1130AC090819130F9F4E82FE695E695E695F0E00B
S1130AD0E858FF4FE081F0E09081877021E030E03A
S1130AE0082E02C0220F331F0A94E2F770E002C0FE
S1130AF0660F771F8A95E2F720952923622B60837E
S1130B0081E0089580E00895813041F018F082304A
S1130B1049F00BC08BB780648BBF07C08BB780686C
S1130B208BBF03C08BB780628BBF8FB780688FBFCA
S1130B3081E00895611124C08130D9F028F0823019
S1130B4089F0833041F04FC085B78E7F85BF85B76C
S1130B508D7F85BF48C085B7816085BF85B78260BA
S1130B6085BF41C085B78E7F85BF85B7826085BF4D
S1130B703AC085B7816085BF85B78D7F85BF33C097
S1130B80613021F58130D9F028F0823089F083304A
S1130B9041F029C085B78B7F85BF85B7877F85BF27
S1130BA022C085B7846085BF85B7886085BF1BC0B8
S1130BB085B78B7F85BF85B7886085BF14C085B72F
S1130BC0846085BF85B7877F85BF0DC0623059F4C7
S1130BD0823031F0833039F484B7806484BF03C039
S1130BE084B78F7B84BF81E00895611105C0909321
S1130BF0EF008093EE000DC0613029F49093EB0078
S1130C008093EA0006C0623021F49093ED00809353
S1130C10EC0081E008951F920F920FB60F921124F9
S1130C202F933F934F935F936F937F938F939F93F0
S1130C30AF93BF93EF93FF93E091EE00F091EF0039
S1130C400995FF91EF91BF91AF919F918F917F9102
S1130C506F915F914F913F912F910F900FBE0F9025
S1130C601F9018951F920F920FB60F9211242F9375
S1130C703F934F935F936F937F938F939F93AF9320
S1130C80BF93EF93FF93E091EA00F091EB00099595
S1130C90FF91EF91BF91AF919F918F917F916F9150
S1130CA05F914F913F912F910F900FBE0F901F9026
S1130CB018951F920F920FB60F9211242F933F9302
S1130CC04F935F936F937F938F939F93AF93BF9350
S1130CD0EF93FF93E091EC00F091ED000995FF9103
S1130CE0EF91BF91AF919F918F917F916F915F91A0
S1130CF04F913F912F910F900FBE0F901F90189519
S1130D001F93CF93DF93662329F0633019F0623089
S1130D1009F05EC0483008F05DC0142FD62FC82FEC
S1130D2040E061E08CE10E941E0540E061E08DE15D
S1130D300E941E058FB58C7F8C2B8FBD2EB58C2FFA
S1130D4090E0880F991F880F991F880F991F922F81
S1130D509F79892B8EBD4FB58D2F90E09C01002487
S1130D60369527950794369527950794322F202D8D
S1130D70342F3F73232B2FBD2FB582959295907FEF
S1130D809827807F9827922F9F7C892B8FBD4EB503
S1130D90487F412B4EBDD33049F48AB59BB51BBC6B
S1130DA01ABC88B599B519BC18BC0CC0D23051F422
S1130DB08AB59BB58FEF9FEF9BBD8ABD28B539B52A
S1130DC099BD88BDD093B50081E08093B60003C07F
S1130DD080E001C080E0DF91CF911F910895909150
S1130DE0B6009130C1F48536C0F420E137E237BD56
S1130DF026BD26B537B5A82FB0E00E94730F24E6B0
S1130E0030E040E050E00E944B0F3BBD2ABD39BDAD
S1130E1028BD81E0089580E0089580E00895813040
S1130E2069F028F0823089F08330B1F05CC083B778
S1130E308F7B83BF83B7877F83BF14C083B78064EE
S1130E4083BF83B7877F83BF0DC083B78F7B83BF87
S1130E5083B7886083BF06C083B7806483BF83B7CA
S1130E60886083BF83B7887F83BF83B7862B83BFA4
S1130E706230C9F028F4662349F0613069F035C066
S1130E80643009F1C0F0653031F12FC01092D30005
S1130E901092D20081E0089581E090E09093D30015
S1130EA08093D200089588E090E09093D3008093DB
S1130EB0D20081E0089580E490E09093D300809381
S1130EC0D20081E0089580E091E09093D300809374
S1130ED0D20081E0089580E094E09093D300809361
S1130EE0D20081E0089580E0089581E0089589B7F3
S1130EF0816089BF81E0089589B78E7F89BF81E0D1
S1130F00089589B78D7F89BF81E008952F923F921C
S1130F104F925F926F927F928F929F92AF92BF9205
S1130F20CF92DF92EF92FF920F931F93CF93DF93B1
S1130F30CDB7DEB72F970FB6F894DEBF0FBECDBF87
S1130F40A22EB32EC42ED52EE62EF72EE82FF92F7F
S1130F5009B600FC03C009B601FE08C0011511055D
S1130F6009F4D4C01093E6000093E5002A2D3B2D2C
S1130F704C2D5D2D6E2D7F2D8E2F9F2FA0E00E9476
S1130F80851009F4C5C02115A1E03A0741055105B2
S1130F90610571058105910579F170F121503140A8
S1130FA04109510961097109810991092F3F3640AD
S1130FB0410551056105710581059105F9F0F0F0D0
S1130FC02A2D3B2D4C2D5D2D6E2D7F2D8E2F9F2F89
S1130FD02150384041095109610971098109910978
S1130FE02F3F374141055105610571058105910583
S1130FF009F030F464E005C062E003C063E001C0BE
S113100065E01F2F0E2F80E00E940F072091D20071
S11310103091D30040E050E060E072E18AE790E074
S11310200E944B0F19012A01612C712C43012F835B
S1131030388649865A866B867C868D869E86332DB5
S1131040442D552D60E070E080E090E00E948D0F0B
S1131050222E332E49835A836B837C838D839E8314
S1131060A12C6894BB24B6F80F2EF2E4CF2EF02DF9
S11310700F2EFFE0DF2EF02DE12CF12C00E010E02C
S11310800E94E80F2F873F83442E552E662E772E1D
S1131090882E992E2093DD003093DE004092DF00ED
S11310A05092E0006092E1007092E2008092E300CE
S11310B09092E4006894AA24A6F80F2EF2E4BF2EBE
S11310C0F02D0F2EFFE0CF2EF02DD12C222D332D1D
S11310D049815A816B817C818D819E810E94E80FB8
S11310E0E22F2093D4002F853F81442D552D662D6A
S11310F0772D882D992DA0E00E94851021F4E1958B
S1131100E2BF81E006C012BE81E003C080E001C0FE
S113111080E02F960FB6F894DEBF0FBECDBFDF91EF
S1131120CF911F910F91FF90EF90DF90CF90BF90E0
S1131130AF909F908F907F906F905F904F903F9073
S11311402F9008950E947C070E94810760E080E050
S11311500E940F0788B7816088BF1092DD0010924B
S1131160DE001092DF001092E0001092E100109275
S1131170E2001092E3001092E4001092D400109266
S1131180D5001092D6001092D7001092D800109279
S1131190D9001092DA001092DB001092DC0081E09A
S11311A008952F923F924F925F926F927F928F9207
S11311B09F92AF92BF92CF92DF92EF92FF920F93E2
S11311C01F93CF93DF9300D000D0CDB7DEB720902C
S11311D0D5003090D6004090D7005090D800609051
S11311E0D9007090DA008090DB009090DC00809150
S11311F0DD008C838091DE008B83B091DF00A091B1
S1131200E000F091E100E091E2008091E300898345
S11312108091E4008A83222D332D442D552D662D93
S1131220772D882D992DAC80BB80CB2EDA2EEF2E16
S1131230FE2E09811A810E947C10F0F408B600FE8B
S113124065C088B7816088BF2091D500882DA1E052
S11312500E9467102093D5003093D6004093D700A6
S11312605093D8006093D9007093DA008093DB0028
S11312709093DC0080E04BC0222D332D442D552D5E
S1131280662D772D882D992DAC80BB80CB2EDA2E40
S1131290EF2EFE2E09811A810E947C1061F5809147
S11312A0D400809582BF88B7816088BF2091D50023
S11312B03091D6004091D7005091D8006091D90068
S11312C07091DA008091DB009091DC00A1E00E9433
S11312D067102093D5003093D6004093D7005093E5
S11312E0D8006093D9007093DA008093DB00909368
S11312F0DC0080E00CC0E091E500F091E60030975E
S113130009F009950E94A20881E001C080E00F90D5
S11313100F900F900F90DF91CF911F910F91FF903D
S1131320EF90DF90CF90BF90AF909F908F907F9081
S11313306F905F904F903F902F9008951F920F925F
S11313400FB60F9211242F923F924F925F926F9299
S11313507F928F929F92AF92BF92CF92DF92EF9241
S1131360FF920F931F932F933F934F935F936F932A
S11313707F938F939F93AF93BF93EF93FF93CF93F9
S1131380DF9300D000D0CDB7DEB78090D500909029
S1131390D6008091D7008C838091D8008B83B09144
S11313A0D900A091DA00F091DB00E091DC002090FC
S11313B0DD003090DE004090DF005090E00060904F
S11313C0E1007090E2008091E30089838091E40061
S11313D08A83282D392D4C815B816B2F7A2F8F2F97
S11313E09E2FA22CB32CC42CD52CE62CF72C0981CF
S11313F01A810E947C10A0F4A1E00E94671020933F
S1131400D5003093D6004093D7005093D800609312
S1131410D9007093DA008093DB009093DC0052C013
S1131420282D392D4C815B816B2F7A2F8F2F9E2F86
S1131430A22CB32CC42CD52CE62CF72C09811A81B0
S11314400E947C1041F58091D400809582BF209148
S1131450D5003091D6004091D7005091D8006091CA
S1131460D9007091DA008091DB009091DC00A1E05A
S11314700E9467102093D5003093D6004093D70084
S11314805093D8006093D9007093DA008093DB0006
S11314909093DC0017C01092D5001092D6001092E1
S11314A0D7001092D8001092D9001092DA0010924E
S11314B0DB001092DC00E091E500F091E60030974B
S11314C009F009950F900F900F900F90DF91CF9135
S11314D0FF91EF91BF91AF919F918F917F916F9108
S11314E05F914F913F912F911F910F91FF90EF903A
S11314F0DF90CF90BF90AF909F908F907F906F9030
S11315005F904F903F902F900F900FBE0F901F90C1
S113151018958D3020F092EF980F9230E0F49FB53B
S11315209C7F9FBD9FB5282F2370922B9FBD9EB596
S1131530977E9EBD2EB5982F9C70892F90E0880FC2
S1131540991F822B8EBD8EB5887F8EBD8EB5682B7C
S11315506EBD81E0089580E0089589B7846089BFF5
S113156081E00895009779F04091CC005091CD002E
S11315706091CE007091CF00FC014083518362835F
S1131580738381E0089580E008951092CC00109256
S1131590CD001092CE001092CF0081E008951F92EA
S11315A00F920FB60F9211242F933F934F935F9393
S11315B06F937F938F939F93AF93BF93EF93FF9317
S11315C08091CC009091CD00A091CE00B091CF003D
S11315D00196A11DB11D8093CC009093CD00A093E2
S11315E0CE00B093CF00E091D000F091D1003097BD
S11315F009F00995FF91EF91BF91AF919F918F9160
S11316007F916F915F914F913F912F910F900FBEFA
S11316100F901F901895813069F028F0823089F07E
S11316208330B1F05DC085B58F7B85BD85B5877F7F
S113163085BD14C085B5806485BD85B5877F85BDAE
S11316400DC085B58F7B85BD85B5886085BD06C019
S113165085B5806485BD85B5886085BD85B5887F81
S113166085BD85B5862B85BD6230D1F028F466230F
S113167051F0613071F036C0663011F1673041F1DC
S1131680643081F515C01092B8001092B70081E063
S1131690089581E090E09093B8008093B700089596
S11316A088E090E09093B8008093B70081E00895BB
S11316B080E490E09093B8008093B70081E00895AF
S11316C080E091E09093B8008093B70081E00895A2
S11316D080E094E09093B8008093B70081E008958F
S11316E080E0089581E0089589B7806489BF81E02E
S11316F0089589B78F7B89BF81E0089589B78F7773
S113170089BF81E008952F923F924F925F926F922A
S11317107F928F929F92AF92BF92CF92DF92EF927D
S1131720FF920F931F93CF93DF93CDB7DEB72F971D
S11317300FB6F894DEBF0FBECDBFA22EB32EC42EBB
S1131740D52EE62EF72EE82FF92F09B606FC03C096
S113175009B607FE08C00115110509F4D4C0109399
S1131760CB000093CA002A2D3B2D4C2D5D2D6E2DF0
S11317707F2D8E2F9F2FA0E00E94851009F4C5C0F5
S11317802115A1E03A07410551056105710581055F
S1131790910579F170F121503140410951096109F4
S11317A07109810991092F3F3640410551056105B1
S11317B0710581059105F9F0F0F02A2D3B2D4C2D92
S11317C05D2D6E2D7F2D8E2F9F2F21503840410986
S11317D0510961097109810991092F3F3741410577
S11317E05105610571058105910509F030F466E044
S11317F005C062E003C064E001C067E01F2F0E2F44
S113180080E00E940B0B2091B7003091B80040E0BB
S113181050E060E072E18AE790E00E944B0F19010A
S11318202A01612C712C43012F83388649865A86FC
S11318306B867C868D869E86332D442D552D60E0E7
S113184070E080E090E00E948D0F222E332E4983B9
S11318505A836B837C838D839E83A12C6894BB24E1
S1131860B6F80F2EF2E4CF2EF02D0F2EFFE0DF2E70
S1131870F02DE12CF12C00E010E00E94E80F2F87FE
S11318803F83442E552E662E772E882E992E209334
S1131890C2003093C3004092C4005092C5006092CD
S11318A0C6007092C7008092C8009092C9006894E4
S11318B0AA24A6F80F2EF2E4BF2EF02D0F2EFFE07F
S11318C0CF2EF02DD12C222D332D49815A816B81BD
S11318D07C818D819E810E94E80FE22F2093B900C4
S11318E02F853F81442D552D662D772D882D992DDB
S11318F0A0E00E94851021F4E195E4BD81E006C0DA
S113190014BC81E003C080E001C080E02F960FB6D4
S1131910F894DEBF0FBECDBFDF91CF911F910F9121
S1131920FF90EF90DF90CF90BF90AF909F908F90FB
S11319307F906F905F904F903F902F9008950E94FA
S1131940790B0E947E0B60E080E00E940B0B88B74D
S1131950806488BF1092C2001092C3001092C40029
S11319601092C5001092C6001092C7001092C800D1
S11319701092C9001092B9001092BA001092BB00E4
S11319801092BC001092BD001092BE001092BF00D5
S11319901092C0001092C10081E008952F923F92EE
S11319A04F925F926F927F928F929F92AF92BF926B
S11319B0CF92DF92EF92FF920F931F93CF93DF9317
S11319C000D000D0CDB7DEB72090BA003090BB0075
S11319D04090BC005090BD006090BE007090BF006D
S11319E08090C0009090C1008091C2008C8380914F
S11319F0C3008B83B091C400A091C500F091C600D0
S1131A00E091C7008091C80089838091C9008A83CE
S1131A10222D332D442D552D662D772D882D992D6E
S1131A20AC80BB80CB2EDA2EEF2EFE2E09811A81DC
S1131A300E947C10F0F408B606FE65C088B7806486
S1131A4088BF2091BA00882DA1E00E9467102093DE
S1131A50BA003093BB004093BC005093BD00609328
S1131A60BE007093BF008093C0009093C10080E0DB
S1131A704BC0222D332D442D552D662D772D882DC9
S1131A80992DAC80BB80CB2EDA2EEF2EFE2E098151
S1131A901A810E947C1061F58091B900809584BD03
S1131AA088B7806488BF2091BA003091BB00409110
S1131AB0BC005091BD006091BE007091BF00809148
S1131AC0C0009091C100A1E00E9467102093BA0069
S1131AD03093BB004093BC005093BD006093BE00A4
S1131AE07093BF008093C0009093C10080E00CC04D
S1131AF0E091CA00F091CB00309709F009950E945B
S1131B009F0C81E001C080E00F900F900F900F9028
S1131B10DF91CF911F910F91FF90EF90DF90CF90C5
S1131B20BF90AF909F908F907F906F905F904F90F9
S1131B303F902F9008951F920F920FB60F92112489
S1131B402F923F924F925F926F927F928F929F92C9
S1131B50AF92BF92CF92DF92EF92FF920F931F93B7
S1131B602F933F934F935F936F937F938F939F93A1
S1131B70AF93BF93EF93FF93CF93DF9300D000D045
S1131B80CDB7DEB78090BA009090BB008091BC00C6
S1131B908C838091BD008B83B091BE00A091BF0067
S1131BA0F091C000E091C1002090C2003090C300C9
S1131BB04090C4005090C5006090C6007090C7006B
S1131BC08091C80089838091C9008A83282D392D8A
S1131BD04C815B816B2F7A2F8F2F9E2FA22CB32CDD
S1131BE0C42CD52CE62CF72C09811A810E947C1078
S1131BF0A0F4A1E00E9467102093BA003093BB00C8
S1131C004093BC005093BD006093BE007093BF002E
S1131C108093C0009093C10052C0282D392D4C816F
S1131C205B816B2F7A2F8F2F9E2FA22CB32CC42C69
S1131C30D52CE62CF72C09811A810E947C1041F5E1
S1131C408091B900809584BD2091BA003091BB0089
S1131C504091BC005091BD006091BE007091BF00E6
S1131C608091C0009091C100A1E00E946710209370
S1131C70BA003093BB004093BC005093BD00609306
S1131C80BE007093BF008093C0009093C10017C042
S1131C901092BA001092BB001092BC001092BD00CA
S1131CA01092BE001092BF001092C0001092C100AA
S1131CB0E091CA00F091CB00309709F009950F909C
S1131CC00F900F900F90DF91CF91FF91EF91BF9103
S1131CD0AF919F918F917F916F915F914F913F91C0
S1131CE02F911F910F91FF90EF90DF90CF90BF90B5
S1131CF0AF909F908F907F906F905F904F903F90A8
S1131D002F900F900FBE0F901F9018954F925F92D7
S1131D106F927F928F929F92AF92BF92CF92DF92F7
S1131D20EF92FF920F931F93CF93DF93682E802E31
S1131D30912ED22FC32FB42FA52FF62FE72F2701D3
S1131D40202F312F4D2F5C2F6B2F7A2F8F2F9E2F0B
S1131D5002E00E944510A22EB32EC42ED52EE62EEC
S1131D60F72E782E192F05E00E944510072D0E94AA
S1131D707310A82CB92CCD2EDC2EEB2EFA2E0F2F9F
S1131D801E2F0E945E1003E00E944510C22ED32E27
S1131D90E42EF52ED62FC72FA82EB92E611010C011
S1131DA00E94770782012C2D3D2D4E2D5F2D6D2F26
S1131DB07C2F8A2D9B2D0E9486070E94D10814C077
S1131DC082E0681210C00E94740B82012C2D3D2DFC
S1131DD04E2D5F2D6D2F7C2F8A2D9B2D0E94830B02
S1131DE00E94CE0C01C080E0DF91CF911F910F9132
S1131DF0FF90EF90DF90CF90BF90AF909F908F9027
S1131E007F906F905F904F9008958F929F92AF92C2
S1131E10BF92CF92DF92EF92FF920F931F93CF93D3
S1131E20DF93802E912EA22EB32EC42ED52ED62F24
S1131E30C72F811110C00E9477078701282D392DE3
S1131E404A2D5B2D6C2D7D2D8D2F9C2F0E94860796
S1131E500E94D10813C0823081F40E94740B870160
S1131E60282D392D4A2D5B2D6C2D7D2D8D2F9C2FEA
S1131E700E94830B0E94CE0C01C080E0DF91CF91C1
S1131E801F910F91FF90EF90DF90CF90BF90AF9094
S1131E909F908F900895A1E21A2EAA1BBB1BFD01EF
S1131EA00DC0AA1FBB1FEE1FFF1FA217B307E40735
S1131EB0F50720F0A21BB30BE40BF50B661F771F8D
S1131EC0881F991F1A9469F760957095809590956D
S1131ED09B01AC01BD01CF010895EE0FFF1F0590DA
S1131EE0F491E02D0994A29FB001B39FC001A39F78
S1131EF0700D811D1124911DB29F700D811D11243F
S1131F00911D08950E94730FA59F900DB49F900D8D
S1131F10A49F800D911D11240895DF93CF931F93E7
S1131F200F939A9DF02D219FF00D8B9DF00D8A9DAE
S1131F30E02DF10D039FF00D029FE00DF11D4E9D6C
S1131F40E00DF11D5E9DF00D4F9DF00D7F936F939D
S1131F50BF92AF925F934F93D5010E94730F8B0191
S1131F60AC01D7010E94730FEB01E80FF91FD601F2
S1131F700E94DD0F2F913F91D6010E94730FC60F6F
S1131F80D71FE81FF91FAF91BF910E94DD0F2F915A
S1131F903F910E94730FC60FD71FE81FF91FD60188
S1131FA00E94730FE60FF71F9801BE01CF011124A1
S1131FB00F911F91CF91DF9108950E94730F460FE7
S1131FC0571FC81FD91F08F431960895689401C09B
S1131FD0E8948F929F92CF93DF930E94F40FDF9146
S1131FE0CF919F908F90089588249924F401E4015F
S1131FF0B0E49F93AA279A158B049C04ED05FE0573
S1132000CF05D007A10798F4AD2FDC2FCF2FFE2FDB
S1132010E92D982C892E982F872F762F652F542FF2
S1132020432F322F2227B85031F7BF9127C01B2EE0
S1132030BF91BB27220F331F441F551F661F771FF5
S1132040881F991F881C991CEE1FFF1FCC1FDD1FC2
S1132050AA1FBB1F8A149B04EC05FD05CE05DF05F2
S1132060A007B10748F08A189B08EC09FD09CE09BE
S1132070DF09A00BB10B21601A94E1F62EF4940150
S1132080AF01BE01CD01000C08950F93083090F00C
S1132090982F872F762F652F542F432F322F2227E7
S11320A00850F4CF220F331F441F551F661F771F9C
S11320B0881F991F0A95B2F70F9108952A0D3B1DA9
S11320C04C1D5D1D6E1D7F1D801F911F08950024F2
S11320D0A7FD00942A0F301D401D501D601D701D6A
S11320E0801D901D08952A193B094C095D096E094C
S11320F07F09800B910B08952A153B054C055D055E
S11321006E057F058007910708950024A7FD0094BC
S11321102A173005400550056005700580059005B7
S11321200895BB274A3031F4992322F4BDE29095F7
S113213081959F4F0C949D10BB27FB015527AA271F
S1132140880F991FAA1FA41710F0A41B8395505140
S1132150B9F7A05DAA3308F0A95DA193009779F7B8
S1132160B111B1931192CB010C94B610DC01FC01B6
S1132170672F71917723E1F7329704C07C916D93B7
S113218070836291AE17BF07C8F30895F894FFCF28
S113219005050644697374616E63653A0020202066
S10F21A020202020202020003B38353275
S9030000FC
